:020000040000FA
:1000000018F09FE518F09FE518F09FE518F09FE5C0
:1000100018F09FE50000A0E1F0FF1FE518F09FE554
:100020005800000040000000802700004800000049
:100030004C000000000000005000000054000000D0
:10004000FEFFFFEAFEFFFFEAFEFFFFEAFEFFFFEA18
:10005000FEFFFFEAFEFFFFEA94009FE5AA10A0E37F
:100060005520A0E32430A0E3043080E50130A0E374
:10007000003080E50C1080E50C2080E5083090E52C
:10008000013B13E2FCFFFF0A0330A0E3003080E5F0
:100090000C1080E50C2080E558009FE50410A0E3DB
:1000A000041080E50210A0E3001080E548009FE501
:1000B000DBF021E300D0A0E1080040E2D7F021E32B
:1000C00000D0A0E1080040E2D1F021E300D0A0E19F
:1000D000080040E2D2F021E300D0A0E1030C40E2AE
:1000E000D3F021E300D0A0E1030C40E20C009FE537
:1000F00010FF2FE180C01FE000C01FE0B83C0040AF
:1001000004010000000000EB2E0000EB2C008FE249
:10011000000C90E800A08AE000B08BE001704AE299
:100120000B005AE10000001A260000EB0F00BAE8AD
:1001300018E04FE2010013E303F0471013FF2FE133
:10014000F827000018280000102052E27800B0289C
:100150007800A128FBFFFF8A822EB0E13000B02892
:100160003000A12800409045004081451EFF2FE14E
:100170000030B0E30040B0E30050B0E30060B0E313
:10018000102052E27800A128FCFFFF8A822EB0E105
:100190003000A128003081451EFF2FE101C08FE211
:1001A0001CFF2FE11FB5059886460FBC009C02B0CE
:1001B0007047000001C08FE21CFF2FE130B475468C
:1001C000AE4630BC704700002D0900EB0210A0E1E4
:1001D000F1FFFFEB1CC09FE50FC08CE001001CE3AA
:1001E0000DE08F120FE0A0011CFF2FE101C08FE294
:1001F0001CFF2FE102F076FA750200007847C04636
:1002000003002DE9EAFFFFEB0300BDE83C0900EB2A
:100210000C009FE50C109FE504209FE508309FE54A
:100220001EFF2FE198360040A0390040983600406C
:1002300001002DE900204DE90000A0E104D04DE2CD
:100240000100BDE8004020E900E0A0E10100BDE8B8
:10025000FF7F4EE90000A0E13CE04EE200004FE1EC
:1002600001002EE94C009FE5000090E501002EE919
:1002700044009FE5001090E500E081E53C009FE52B
:100280000FE0A0E110FF2FE12C009FE5000090E5BA
:1002900000E090E51C009FE50200BEE8001080E54C
:1002A0000100BEE800F06FE1FF7FDEE80000A0E1A2
:1002B0003CE09EE504F05EE29C00004060000040EF
:1002C0008105000000205BE041004118514A515C6B
:1002D000002902D0012950D127E0410041184D4AA0
:1002E0008918897800290CD14B4989684200821805
:1002F000484BD218537801229A409143464A916064
:1003000012E041004118434A8918897801290BD12C
:1003100041498968420082183E4BD2185378012225
:100320009A4011433C4A916028E041004118394A03
:100330008918897800290CD13749896942008218C7
:10034000344BD218537801229A409143324A91613A
:1003500012E0410041182F4A8918897801290BD1F0
:100360002D498969420082182A4BD21853780122FC
:100370009A401143284A916100E0C046C046401CA3
:100380002649098888429FDB70470200002A02D074
:10039000012A0CD105E0204B1B68CB40D807C00FC9
:1003A00005E01D4B1B69CB40D807C00FC046C046B7
:1003B000704710B4002802D0012827D113E0002A8A
:1003C00007D1154BDB6801248C402343124CE360BA
:1003D00008E0012A06D1104B5B6801248C402343BE
:1003E0000D4C636012E0002A07D10B4BDB6901243E
:1003F0008C402343084CE36108E0012A06D1064BF8
:100400005B6901248C402343034C6361C04610BCEC
:100410007047000000000040008002E05A000040E9
:100420007D20C0001649C8600800406801210843CB
:1004300013494860704710B5E120400200F024F8ED
:10044000FFF740FFFFF7ECFF01200E49087010BCDA
:1004500008BC1847FFF7EFFF01F054FF00F042FD22
:10046000C046FEE706484068022108430449486048
:100470000800406802218843014948607047000035
:10048000008000E000C11FE070B505005A48006818
:100490000121090408435849086008000068012147
:1004A00089040843544908602E013100534802F082
:1004B00035F904005248007B8021084350490873F5
:1004C0000C70240A0C71072008720320087348146A
:1004D000C068802188434B49C860080000698021BA
:1004E0000843484908614848484948602720484926
:1004F000486043480079032108434149087170BCB2
:1005000008BC1847010043480078012809D10020A1
:10051000404A10704048007800060016087001201C
:1005200070470020FCE7364A1070704770B5050030
:100530000C003A480078002820D1002D1ED0384900
:100540000C7036490C70002303E0E85C3549C85450
:100550005B1CA342F9DB31490A780978491E2F4E0A
:1005600031702F490978891A2E4A515C09060816FC
:10057000FFF7D9FF012070BC08BC18470020FAE73C
:1005800010B41F4A107A2EE00207120F022A0BD075
:10059000042A1CD0062A02D00C2A20D116E0184AC0
:1005A000127D110609161BE01C4A1278002A0CDD88
:1005B0001A4A13781278521E184C2270184A127870
:1005C000D21A184B9A5C0E4B1A7009E0C0460C4ABE
:1005D0001278114B1A7001220E4B1A7000E0C046BF
:1005E000C046074A107AC207D20F002ACCD0002298
:1005F000044B1A6310BC704700C002E000879303ED
:10060000000001E000F0FFFF3002000000F1FFFFFA
:1006100000F2FFFF5D0000405C0000405F00004012
:100620005E000040BC00004010B5002406E014212C
:100630006143FE4A881801F023F8641C042CF6D3A9
:10064000FB4801F01DF8FB4801F01AF8FA4801F0E8
:1006500017F8FA4801F014F8F94801F011F8F448D5
:10066000F8490860F348F849086010BC08BC18470E
:1006700010B5040001F00EFDF4480068401CF34979
:100680000860F3480068002808D1F14804600800B9
:10069000006801280ED1FFF7C7FF0BE0ED480068A6
:1006A000002807D1EA480068C06AE16A884201D898
:1006B000E7480460E8480068401CE7490860E749EB
:1006C000E06A0968884202D9E449E06A08601422B5
:1006D000E16A5143D54A8818211D00F0E1FF01F07D
:1006E000E4FCDC480068002801D0D948006810BC50
:1006F00008BC1847FFB581B00E000A9F0C9C216B07
:100700000398401E8000081800900098C008C000A0
:100710000090002E11D0002508E0715D20003430DB
:100720004155705D002800D102E06D1C102DF4D3FE
:10073000C04600214320015502E00021342001552C
:10074000042F00D30327E76267640020A064201D04
:1007500000F0A3FF2000183000F09FFF2461042068
:10076000C01BA06164620020E0640021502001559C
:10077000049A684603C801F025FC20600B98002805
:1007800001D00B98046005B0F0BC08BC1847FFB559
:1007900085B01700B80001F0E8FC0600002E0BD071
:1007A000542001F0E2FC0400002C01D0266304E098
:1007B000300001F02FFD00E00024002C10D00022BA
:1007C0000EA803C86B4613C303923A00089B05A802
:1007D00003C8FFF78FFF2000FFF74AFF012501E064
:1007E0000025ED43280009B0F0BC08BC1847954926
:1007F00009680968002901D1012100E000210029D0
:1008000004D00021C943964A116006E08D49096869
:10081000C968C868924A41681160704710B5040001
:10082000206B01F0F7FC200001F0F4FC10BC08BCC8
:10083000184770B5050001F02DFC002D02D1844849
:10084000006800E028000400201D00F051FFA06AAD
:10085000002803D02000183000F04AFF7E480068CE
:10086000401C7D4908607A480068844209D1211DF6
:10087000724800F015FF7B480068401C7949086009
:1008800009E072480068401E704908602000FFF7C8
:10089000C5FFFFF7ACFF01F008FC6E4800680028B8
:1008A00005D06B480068844201D102F013F870BC97
:1008B00008BC1847F8B5002000906B480068002875
:1008C00051D16A480068451C68480560002D0FD169
:1008D0005C4807685C4800685A4908605A480760E5
:1008E00063480068401C62490860FFF780FFC0460B
:1008F0005B480068854235D3C046524800680068AE
:10090000002801D1012000E00020002804D00020B0
:10091000C0435349086024E04A480068C068C4687E
:100920006668B54202D24E4806601AE0201D00F00B
:10093000DFFEA06A002803D02000183000F0D8FEA7
:100940004649E06A0968884202D94449E06A086079
:100950001422E16A5143354A8818211D00F0A0FE97
:10096000CBE7C04604E043480068401C41490860AA
:100970000098F8BC08BC184770B50024002601F0A8
:1009800089FB39480068401E374908600800006844
:10099000002848D12D480068002844D022E026488D
:1009A000C068C4682000183000F0A2FE201D00F0CE
:1009B0009FFE2A49E06A0968884202D92749E06A0D
:1009C00008601422E16A5143184A8818211D00F07A
:1009D00067FE1F49E06A0968C96A884202D301209C
:1009E0002549086014480068002801D1012000E072
:1009F00000200028D3D0002C01D0FFF7F8FE1D48BE
:100A00000568002D0DD0C046FFF754FF002802D026
:100A10000120194908606D1E002DF5D100201549EF
:100A200008601548006801F040FB27E084010040A1
:100A3000D4010040E8010040FC01004010020040E9
:100A40002402004064000040680000407000004044
:100A5000600000407C0000408C00004078000040B6
:100A6000900000406C00004098000040740000407E
:100A7000880000408000004084000040300070BCCE
:100A800008BC1847F8B505000E00F6480768F64898
:100A90000068001D00F02CFE681C002808D1002E04
:100AA00006D0F1480168091DF04800F0F9FD1AE090
:100AB0007C19ED4800684460BC4207D2EA480168EE
:100AC000091DEB48006800F0F7FD0CE0E6480168FE
:100AD000091DE848006800F0EFFDE748006884421F
:100AE00001D2E5480460F8BC08BC1847E348006838
:100AF000401CE24908607047F3B581B00400002053
:100B00000090FFF7F3FFD7480668216802980D1898
:100B10002068B04207D92068A8420BD9B54209D94C
:100B20000120009006E02068A84201D8B54201D912
:100B30000120009025600098002803D0A81B002108
:100B4000FFF7A0FFFFF718FF0700002F01D101F00A
:100B5000C1FEFEBC08BC184770B504000025002C7F
:100B600008D0FFF7C3FF00212000FFF78BFFFFF73E
:100B700003FF0500002D01D101F0ACFE70BC08BCE4
:100B8000184770B5040001F085FA002C02D1B64870
:100B9000006800E020000600F56A01F086FA2800EF
:100BA00070BC08BC184710B401000023002902D112
:100BB000AD4C246800E00C002200D06A10BC7047E5
:100BC000FEB507000D0000200090042D00D3032582
:100BD00001F060FA002F02D1A348006800E038005D
:100BE0000400666CAE4244D0B5420BD99E48006802
:100BF00084420DD09C480068C06AA84208D80120F1
:100C0000009005E098480068844201D101200090DE
:100C1000E06A0190E16A606C884200D1E562656437
:100C2000A069C00FC007002802D10420401BA061AA
:100C30006169142201985043914A8018814201D180
:100C4000012000E00020002812D0201D00F050FDFF
:100C50008C49E06A0968884202D98A49E06A0860DA
:100C60001422E16A5143864A8818211D00F018FDBC
:100C7000C04601F01AFAFEBC08BC18477F4800685D
:100C8000002803D001208049086027E000207E4929
:100C900008607C48016800E0491E14204843784AF7
:100CA0001058002801D1012000E000200028F3D1D5
:100CB00014224A43724BD0184268526842600200C4
:100CC00008324368934202D14268526842604268E7
:100CD000D268654B1A606B480160C046704770B5BA
:100CE000050001F0D7F9002D02D15F48006800E04F
:100CF00028000400201D00F0FBFCA06A002803D09F
:100D00002000183000F0F4FC211D584800F0C8FC09
:100D10005020005D012802D100215020015501F032
:100D2000C4F95A480068002805D001F0B3F9FFF76C
:100D30005EFD01F0BAF94C480068844212D1534874
:100D40000068002802D001F0C5FD0BE047480068AC
:100D50004F490968884203D100204349086001E0F7
:100D6000FFF78CFF70BC08BC184710B401000020CE
:100D70000A003E4C5369A34201D1012300E0002345
:100D8000002B11D0434C936AA34201D1012300E010
:100D90000023002B08D1936A002B01D1012300E02E
:100DA0000023002B00D0012010BC704770B5050057
:100DB0002C002D48006884421FD0002C1DD001F06B
:100DC00069F92000FFF7D1FF002814D0201D00F0A2
:100DD0008FFC2C49E06A0968884202D92949E06AF7
:100DE00008601422E16A5143254A8818211D00F049
:100DF00057FC1D48006801F058F970BC08BC184742
:100E0000F8B5050000262C0000272000FFF7ADFFF5
:100E1000002823D01948006800281AD11249E06A36
:100E20000968C96A884200D30126201D00F060FCD1
:100E30001449E06A0968884202D91249E06A0860E8
:100E40001422E16A51430E4A8818211D00F028FC43
:100E500004E0210018310F4800F022FC3000F8BCFB
:100E600008BC1847740000406000004024020040A5
:100E7000680000406400004090000040980000407E
:100E80008401004078000040840000407C00004065
:100E900070000040FC01004010B516E001F0FAF8C7
:100EA000FE48C068C468201D00F022FCFC480068B1
:100EB000401EFB490860FB480068401EF949086075
:100EC00001F0F3F82000FFF7A9FCF64800680028BD
:100ED000E4D110BC08BC1847C046FFF7DDFF01F0A5
:100EE000F9FCFAE71CB5F04800210B0064220091E0
:100EF0000190EEA1EF48FFF74AFC0400012C0CD151
:100F000001F0F2FCA01EEC4908600120EB490860EA
:100F10000020EB49086001F0B3F81CBC08BC18477E
:100F200010B501F0E1FC0020E449086001F0B1F8DF
:100F300010BC08BC184710B501F0ACF8E0480468D4
:100F400001F0B3F8200010BC08BC18470021DC4AAF
:100F500010687047D248006870470100002902D12C
:100F6000D848006800E008000200100034307047E4
:100F700070B504000025FFF7B9FDD34800680019DB
:100F8000D1490860FFF7F8FC0500280070BC08BCD8
:100F9000184770B505000C00CA48016818312800D0
:100FA00000F08AFB01212000FFF76CFD70BC08BC3B
:100FB000184770B506000C0015000120C00720433B
:100FC000C04909688861BF4801681831300000F0E5
:100FD00067FB01212800FFF755FD70BC08BC1847CE
:100FE00070B50600F068C4682000183000F080FB7F
:100FF000B6480068002813D1201D00F079FBB449E1
:10100000E06A0968884202D9B149E06A086014229E
:10101000E16A5143AF4A8818211D00F041FB04E00A
:1010200021001831AC4800F03BFBA649E06A096892
:10103000C96A884204D901250120A849086000E056
:101040000025280070BC08BC184770B505000E00CC
:101050000120C00730432860EC68280000F048FBFE
:10106000201D00F045FB9A49E06A0968884202D9D0
:101070009749E06A08601422E16A5143954A88184A
:10108000211D00F00DFB8F49E06A0968C96A88429A
:1010900002D901209149086070BC08BC184710B5FE
:1010A000040000F0F7FF8E48006820608448006864
:1010B000606000F0FAFF10BC08BC18478849096856
:1010C00001607F4909684160704770B506000C00F7
:1010D00000F0E0FF7A4802687068131A2068401C2C
:1010E000002801D1002517E07D4930680968884251
:1010F00004D07068904201D801250DE02068984224
:1011000007D92068C01A20603000FFF7D7FF0025FC
:1011100002E000202060012500F0C7FF280070BC1D
:1011200008BC184701206D49086070476549086888
:10113000704770B505002C000026002D42D0614993
:10114000E06A0968C96A884235D2A069C00FC00741
:10115000002805D15B480068C06A0421081AA06114
:101160001422E06A50435B4A80186169814201D1D0
:10117000012000E00020002817D0201D00F0B8FA60
:1011800050480068C06AE0625149E06A09688842D4
:1011900002D94F49E06A08601422E16A51434D4A7E
:1011A0008818211D00F07CFA03E046480068C06AF8
:1011B000E062012606E04349606C0968C96A88421A
:1011C00000D20126300070BC08BC184770B505007D
:1011D0002C000026002D23D0A06C401EA064616C62
:1011E000E06A88421CD0A06C002819D1201D00F0B4
:1011F0007FFA606CE0620421E06A081AA061344959
:10120000E06A0968884202D93149E06A086014221C
:10121000E16A51432F4A8818211D00F041FA012646
:10122000300070BC08BC1847FEB506000F00340043
:1012300001200090002E5BD0606CB84201D23D00CE
:1012400000E0656CE06AA84252D0A06C01284FD142
:10125000E06A0190E562A069C00FC007002802D1D2
:101260000420401BA0616169142201985043194A6F
:101270008018814201D1012000E00020002837D0F1
:10128000201D00F035FA1249E06A0968884202D947
:101290000F49E06A08601422E16A23E0100200406E
:1012A000700000406C0000409400004049444C45F0
:1012B00000000000D90E0000900000407C000040BB
:1012C0007400004060000040800000409800004032
:1012D0007800004084010040FC0100408400004090
:1012E000880000405143E04A8818211D00F0D8F9D9
:1012F000FEBC08BC1847DD4909688869DB490968F4
:10130000C96A0422511AD94A126891617047D748B4
:101310000068002806D0D549096808004830896C63
:10132000491C0160D1480068704770B506000D0087
:1013300000F0B0FECD480068C06C00280BD1012140
:10134000CA48006840300174002D04D02800FFF71F
:1013500099FB01F0BFFA00F0A8FE00F09BFEC34825
:101360000068C46C002C0AD0002E04D00020BF49B5
:101370000968C86403E0601EBC490968C8640021AC
:10138000BA4800684030017400F08FFE200070BC45
:1013900008BC1847FFB581B0070014001D0000F01D
:1013A00079FEB24800684030007C022812D0AF4974
:1013B000096808004C30C96CB94301600121AB4891
:1013C000006840300174002D04D02800FFF75AFB5C
:1013D00001F080FA00F069FE00F05CFE002C03D002
:1013E000A2480068C06C2060A04800684030007CC3
:1013F000022801D0002608E09C49096808004C300A
:10140000CA6C02998A43026001260021974800684D
:101410004030017400F049FE300005B0F0BC08BC5B
:101420001847FFB583B00D0016001F000120029081
:10143000039C00F02FFE002F01D0E06C386050209C
:10144000005D0190022150200155330001F062FA45
:10145000051604080C0E1700E06C2843E0640FE04A
:10146000E06C401CE0640BE0E56409E001980228B0
:1014700001D0E56401E00020029001E000E0C046F8
:10148000C0460198012814D1201D00F031F9784997
:10149000E06A0968884202D97549E06A0860142246
:1014A000E16A5143704A8818211D00F0F9F86F482D
:1014B000006800F0FAFD029807B0F0BC08BC1847BD
:1014C000FFB583B00D0016001F0001200190039CA2
:1014D00000200090002F01D0E06C38605020005DAB
:1014E0000290022150200155330001F013FA051635
:1014F00004080C0E1700E06C2843E0640FE0E06C79
:10150000401CE0640BE0E56409E00298022801D089
:10151000E56401E00020019001E000E0C046C04623
:10152000029801282BD153480068002813D1201DB0
:1015300000F0DEF84E49E06A0968884202D94C4959
:10154000E06A08601422E16A5143474A8818211D65
:1015500000F0A6F804E021001831474800F0A0F898
:101560004249E06A0968C96A884208D90C9800288B
:1015700002D001210C9801600120404908600198C7
:1015800007B0F0BC08BC1847F8B505000E002C00E9
:10159000002000905020075D02210155E06C401CA6
:1015A000E064012F29D133480068002813D1201DA1
:1015B00000F09EF82E49E06A0968884202D92C4959
:1015C000E06A08601422E16A5143274A8818211D05
:1015D00000F066F804E021001831274800F060F8B8
:1015E0002249E06A0968C96A884206D9002E01D0FA
:1015F00001203060012021490860F8BC08BC184770
:1016000070B50500002D02D11848006800E02800E0
:10161000060000F03FFD5020805D022804D100212B
:1016200050208155012400E0002400F03EFD200000
:1016300070BC08BC1847F8B504000D00002C02D19E
:101640000A48006800E02000060000F023FD07487B
:101650000068C76CF06CA843F06400F026FD380009
:10166000F8BC08BC1847000084010040600000403E
:101670007800004098000040FC01004084000040D9
:101680000100083141600021C94381600100083137
:10169000C160016100210160704700210161704754
:1016A00042684A6093688B609368596091600861F2
:1016B00003685B1C0360704710B402000B685C1C7D
:1016C000002C01D1106907E01000083000E04068EC
:1016D000446824689C42FAD944684C604C68A16014
:1016E000886041600A611468641C146010BC704713
:1016F00001000A694B6888689860081D09C858602D
:101700005068884201D188685060002008611068E4
:10171000401E10601068704770B505000E002C0068
:1017200000F0B8FC216CE06B484321684018A060D1
:101730000020A06320686060E06B401E216C48437D
:1017400021684118E1600021C9434420015545202A
:101750000155002E0CD12069002801D1012000E0A4
:10176000002000280CD120001030FFF739FC07E0E2
:1017700020001030FFF784FF20002430FFF780FFA7
:1017800000F093FC012070BC08BC1847F8B50600B7
:101790000D001700069C002D01D1246000E0276099
:1017A000E663256401212000FFF7B6FFF8BC08BC02
:1017B0001847FEB505000E00170028007043029080
:1017C00002990800483000F0D0FC0400002C0BD037
:1017D0000194019C2000483001903B0000943100AE
:1017E0002800019AFFF7D2FF2000FEBC08BC184772
:1017F00070B5040000F04EFC4520055714E0606A07
:10180000002801D1012000E00020002808D120009C
:101810002430FFF7E5FB002803D0FFF783FC00E04E
:1018200004E0681E00060516002DE8DCC046002115
:10183000C9434520015500F038FC00F02BFC442042
:10184000055714E02069002801D1012000E00020A4
:1018500000280BD120001030FFF7C2FB002801D078
:10186000FFF760FC681E0006051600E001E0002D91
:10187000E8DCC0460021C9434420015500F015FCB6
:1018800070BC08BC184770B5050000F003FCA86BDD
:10189000E96B884201D1012400E0002400F005FC3E
:1018A000200070BC08BC1847F8B504000F001500F4
:1018B00000200090A66B206C002809D12068002829
:1018C0002ED1A068FFF782FC00900020A06027E0E6
:1018D000002D0FD13900226C606800F071FD216C81
:1018E000606840186060A1686068884218D320680A
:1018F000606015E03900226CE06800F061FD216C49
:10190000E068411AE1602168E068884203D2216CF6
:10191000A068411AE160022D02D1002E00D0761E8F
:10192000701CA0630098F8BC08BC1847FFB583B0D2
:1019300006001D0000273400C04600F0ABFBA06B82
:10194000E16B884201D3022D1AD12A0020000499AC
:10195000FFF7AAFF0290606A002801D1012000E091
:101960000020002804D120002430FFF739FB00E0DC
:10197000C04600F09AFB012007B0F0BC08BC184735
:101980000598002803D100F090FB0020F4E7002F19
:1019900003D16846FFF792FB012700F086FBFFF7B3
:1019A000A5F800F077FB44210857401C002802D11D
:1019B00000214420015545210857401C002802D130
:1019C00000214520015500F070FB05A96846FFF78E
:1019D0007CFB002819D12000FFF755FF00280ED00E
:1019E000200010300599FFF7D4FA2000FFF700FF20
:1019F000FEF7C2FF0028A0D100F06CFF9DE7200099
:101A0000FFF7F6FEFEF7B8FF97E72000FFF7F0FEBE
:101A1000FEF7B2FF0020AFE710B50400002C0AD09B
:101A20000020A06020600021E16000231A0019005E
:101A30002000FFF77BFF10BC08BC1847F8B5040076
:101A400001260027220000210120FFF7B2FE050039
:101A50002800FFF7E1FF2800F8BC08BC1847FFB5D5
:101A600085B0050016001F002C0000200390A06B1D
:101A7000E16B884201D3022F29D145200157029101
:101A8000A06B01903A0020000699FFF70DFF029825
:101A9000401C002812D1606A002801D1012000E01A
:101AA0000020002809D120002430FFF799FA0028EF
:101AB00003D0002E01D00120306005E00298401CC8
:101AC00001060916452001550120049001E000207F
:101AD0000490049809B0F0BC08BC1847FEB5050096
:101AE0000E002C0000200290A06B0190E16B019889
:101AF000814224D94520015700910198401CA063E0
:101B00000098401C002812D1606A002801D10120F1
:101B100000E00020002810D120002430FFF760FAF8
:101B200000280AD0002E08D00120306005E000987F
:101B3000401C0106091645200155012700E0002739
:101B40003800FEBC08BC184770B5050000F0A2FACA
:101B5000A86B002801D1012400E0002400F0A5FAC0
:101B6000200070BC08BC184770B504000D00206C44
:101B700000280ED0216CE0684118E160A168E0689F
:101B8000884201D32168E1602800226CE16800F0FE
:101B900017FC70BC08BC1847F7B582B005000027D9
:101BA0002C00C04600F076FAA66B002E18D020005C
:101BB0000399FFF7D9FF701EA0632069002801D1A7
:101BC000012000E00020002803D120001030FFF7A2
:101BD00007FA00F06AFA012005B0F0BC08BC18470B
:101BE0000498002803D100F060FA0020F4E7002FE9
:101BF00003D16846FFF762FA012700F056FAFEF7B4
:101C000075FF00F047FA44210857401C002802D114
:101C100000214420015545210857401C002802D1CD
:101C200000214520015500F040FA04A96846FFF75D
:101C30004CFA002819D12000FFF786FF00280ED0AB
:101C4000200024300499FFF7A4F92000FFF7D0FD0D
:101C5000FEF792FE0028A5D100F03CFEA2E720008E
:101C6000FFF7C6FDFEF788FE9CE72000FFF7C0FDEA
:101C7000FEF782FE2000FFF767FF002892D00020C9
:101C8000AAE701004A6A002A04D00A6B12680423FA
:101C9000981A00E000207047F3B583B005000027D4
:101CA0002C0000200090C04600F0F4F9A66B002E36
:101CB0001AD0701EA0632068002802D1FFF727FB0E
:101CC000A0602069002801D1012000E00020002848
:101CD00003D120001030FFF783F900F0E6F901206E
:101CE00005B0F0BC08BC18470498002803D100F0E8
:101CF000DCF90020F4E7002F03D101A8FFF7DEF99B
:101D0000012700F0D2F9FEF7F1FE00F0C3F94421FB
:101D10000857401C002802D10021442001554521CC
:101D20000857401C002802D100214520015500F031
:101D3000BCF904A901A8FFF7C8F9002824D12000A4
:101D4000FFF702FF002819D02068002807D100F013
:101D5000A1F9A068FFF7EDF9009000F0A6F92000C6
:101D600024300499FFF715F92000FFF741FDFEF735
:101D700003FE002898D100F0ADFD95E72000FFF7A5
:101D800037FDFEF7F9FD8FE72000FFF731FDFEF785
:101D9000F3FD2000FFF7D8FE002885D0009800282A
:101DA0000BD000F077F92000FFF76BFF0600310041
:101DB000A068FFF739FA00F078F9002090E7F7B54E
:101DC00084B0050000272C00C04600F063F9A06B2A
:101DD00001900198002818D0E66820000599FFF7C7
:101DE000C3FEE660606A002801D1012000E0002007
:101DF000002803D120002430FFF7F2F800F055F955
:101E0000012007B0F0BC08BC18470698002803D191
:101E100000F04BF90020F4E7002F03D102A8FFF7F0
:101E20004DF9012700F041F9FEF760FE00F032F9AC
:101E300044210857401C002802D1002144200155AC
:101E400045210857401C002802D10021452001559A
:101E500000F02BF906A902A8FFF737F9002819D1DD
:101E60002000FFF771FE00280ED0200024300699D4
:101E7000FFF78FF82000FFF7BBFCFEF77DFD002881
:101E8000A3D100F027FDA0E72000FFF7B1FCFEF78B
:101E900073FD9AE72000FFF7ABFCFEF76DFD200015
:101EA000FFF752FE002890D00020AAE7F7B584B0D3
:101EB000050016002C0000200390A06B02900298F1
:101EC000002828D044200157019120000599FFF7F0
:101ED0004BFE0298401EA0630198401C002812D1BE
:101EE0002069002801D1012000E00020002810D145
:101EF00020001030FFF774F800280AD0002E08D018
:101F00000120306005E00198401C010609164420BC
:101F10000155012700E00027380007B0F0BC08BCDD
:101F20001847F3B581B005002C0000200090A06B8D
:101F3000002807D0E76820000299FFF715FEE76048
:101F4000012600E000263000FEBC08BC184770B532
:101F5000040000F09FF8A56B00F0A7F8280070BC03
:101F600008BC184770B50400250000F093F8A96B71
:101F7000E86B461A00F099F8300070BC08BC1847AE
:101F800001000A00906B704770B50400250028001E
:101F900000F040F970BC08BC184701000A00936BC0
:101FA000002B01D1012000E00020704710B4010097
:101FB0000A00936BD46BA34201D1012000E0002002
:101FC00010BC704730B40300001F0C1D0460001FDC
:101FD0003F4C0460001F0360001F3E4C0460001F64
:101FE0003D4C0460001F3D4C0460001F3C4C0460ED
:101FF000001F3C4C0460001F3B4C0460001F3B4C26
:102000000460001F3A4C0460001F3A4C0460001F3B
:10201000394C0460001F394C0460001F64100460D8
:10202000001F0260001F1F240460CC07E40F002C77
:1020300003D0202504682C430460001F00240460A2
:1020400030BC704700212E4AD1602E4811008861B3
:10205000032151615114C968102291432A4AD16069
:102060001100096910221143274A11612749284AA2
:1020700011602421274A11600121214A51607047D3
:1020800010B5FFF7DFFF00F05DFB002010BC08BCBF
:102090001847704710B500F027FC1F480068401C27
:1020A0001D49086010BC08BC184710B51A480068E4
:1020B00000280AD018480068401E17490860080028
:1020C0000068002801D100F01BFC10BC08BC1847B8
:1020D000AAAAAAAA1212121211111111101010108C
:1020E0000909090908080808070707070606060678
:1020F00005050505040404040303030302020202A8
:10210000004000E060EA000000F0FFFF1C2100003A
:1021100000F1FFFF00F2FFFF9C0000400F502DE98F
:10212000ED0100EB0100A0E310109FE5000081E548
:102130000000A0E3D00F00E50F50BDE804F05EE220
:10214000004000E0454AD008C000454A1060002227
:10215000434B5A60434A444B5A6000221A600100C4
:10216000404A4A601A000A607047F8B5040000202F
:102170000090FEF7BBFC3D480068002804D1FFF743
:10218000E1FF012039490860002C09D008346007BC
:10219000400F002804D06007400F0821081A0419D6
:1021A000002C31D02F4884422ED22D4F38000568A4
:1021B00001E02F002D686868A04202D2286800283C
:1021C000F7D1294885421FD0386808300090286828
:1021D00038606868001B102810D92E196868001B29
:1021E00070606C6071681E4800E0006802685268A8
:1021F0008A42FAD3026832600660C0461C496868A9
:102200000968081A1A490860FEF7B6FB0098F8BC7E
:1022100008BC184770B506003500002E16D0083DE2
:102220002C00FEF763FC61680D4800E0006802685E
:1022300052688A42FAD30268226004600C496068DE
:10224000096840180A490860FEF796FB70BC08BC94
:102250001847074800687047704700004002004078
:10226000A0000040F8330000A8000040B400004087
:10227000B0000040C0460021C9433D480068FFF758
:102280000BFD012817D100240CE0142139A0FEF722
:102290004DF9002500E06D1C3B488542FBD3601CD6
:1022A0000406240E0A2CF0DB00231A001900304823
:1022B0000068FFF73BFBFF20F530FEF74DFCDAE747
:1022C000C0460021C9432A480068FFF7E5FC012801
:1022D00014D1002409E014212CA0FEF727F90320D3
:1022E000FEF73AFC601C0406240E0A2CF3DB0023E4
:1022F0001A0019001E480068FFF718FB6420FEF75B
:102300002BFCDEE71FB503A8012100236422009106
:10231000019023A12548FEF73AFA0400012C0FD1C1
:1023200002A80121002364220091019020A12348EA
:10233000FEF72DFA0400012C02D00398FEF779FA7B
:10234000012C0FD10120FFF779FB09490860080033
:102350000068002806D10398FEF76BFA0298FEF792
:1023600068FA0024200004B010BC08BC1847000024
:10237000B800004048656C6C6F2066726F6D205429
:1023800061736B20320D0A00A086010048656C6CF9
:102390006F2066726F6D205461736B20310D0A00DF
:1023A00053656E64205461736B310000C1220000DC
:1023B00053656E64205461736B3200007522000017
:1023C0007847C046030052E32A00009A03C010E297
:1023D0000800000A0130D1E402005CE30C2082E036
:1023E00001C0D1940130C0E40130D13401C0C094A7
:1023F000042042E20130C034033011E28700000AB9
:10240000042052E21B00003A03C031E7020053E30C
:102410000800000A0F00008A2C34A0E104C0B1E5D6
:10242000042052E20C3C83E1043080E4F9FFFF2AEF
:10243000011081E20F0000EA2C38A0E104C0B1E5F0
:10244000042052E20C3883E1043080E4F9FFFF2AD3
:10245000021081E2070000EA2C3CA0E104C0B1E5D3
:10246000042052E20C3483E1043080E4F9FFFF2AB7
:10247000031081E20000A0E1822FB0E10130D124FD
:1024800001C0D1240120D1440130C02401C0C024A6
:102490000120C0441EFF2FE1013090E12100004ADD
:1024A0000020B0E3A03071E01A00003A203271E061
:1024B0000F00003A203471E00100003A00C0A0E3B0
:1024C000200000EAA03371E0810340200220B2E046
:1024D000203371E0010340200220B2E0A03271E01D
:1024E000810240200220B2E0203271E0010240204F
:1024F0000220B2E0A03171E0810140200220B2E070
:10250000203171E0010140200220B2E0A03071E0F2
:10251000810040200220B2E0011050E00010A03104
:102520000200A2E01EFF2FE1022111E20010614231
:1025300040C032E000006022203271E01D00003A0D
:10254000203471E00F00003A0113A0E1203471E063
:102550003F2382E30B00003A0113A0E1203471E035
:102560003F2682E30700003A0113A0E1203471E026
:102570003F2982E30113A0213F2C8223003071E226
:102580001D00002A2113A021A03371E08103402007
:102590000220B2E0203371E0010340200220B2E0CB
:1025A000A03271E0810240200220B2E0203271E0CE
:1025B000010240200220B2E0A03171E08101402000
:1025C0000220B2E0203171E0010140200220B2E09F
:1025D000EBFFFF2AA03071E0810040200220B2E032
:1025E000011050E00010A0310200A2E0CCCFB0E119
:1025F00000006042001061221EFF2FE1CCCFB0E14D
:102600000000604201402DE90000B0E30000A0E1BD
:102610000240BDE81EFF2FE1704770477047000081
:1026200010402DE9202052E20500003A1850B1E890
:10263000202052E21850A0E81850B1E81850A0E845
:10264000F9FFFF2A02CEB0E11850B1281850A02897
:102650001800B1481800A0481040BDE802CFB0E112
:1026600004309124043080241EFF2F01822FB0E11A
:10267000B230D1200120D144B230C0200120C0446A
:102680001EFF2FE10E50A0E11A0000EB05E0A0E1D3
:102690000050B0E10D10A0E10A30A0E10700C0E356
:1026A00000D0A0E160D08DE220402DE9D7F6FFEB0D
:1026B0002040BDE80060A0E30070A0E30080A0E33C
:1026C00000B0A0E30710C1E305C0A0E1C009ACE879
:1026D000C009ACE8C009ACE8C009ACE801D0A0E191
:1026E0001EFF2FE110B50400C046C0462000FDF7D4
:1026F00085FD10BC08BC184700009FE51EFF2FE1B8
:102700003836004001C08FE21CFF2FE1014918203C
:10271000ABDFFEE7260002001EFF2FE17847C04630
:102720000020B0E3203171E077FFFF3AA03271E082
:102730006CFFFF3A203471E061FFFF3A00C0A0E374
:1027400080FFFFEA7847C0466C019FE5000090E5F6
:1027500000E090E564019FE50200BEE8001080E51E
:102760000100BEE800F06FE1FF7FDEE80000A0E1BD
:102770003CE09EE504F05EE2000000EF1EFF2FE16A
:1027800004E08EE201002DE900204DE90000A0E107
:1027900004D04DE20100BDE8004020E900E0A0E1E6
:1027A0000100BDE8FF7F4EE90000A0E13CE04EE201
:1027B00000004FE101002EE900019FE5000090E5D7
:1027C00001002EE9F0009FE5001090E500E081E5B2
:1027D000EC009FE50FE0A0E110FF2FE1D8009FE59E
:1027E000000090E500E090E5D0009FE50200BEE823
:1027F000001080E50100BEE800F06FE1FF7FDEE839
:102800000000A0E13CE09EE504F05EE201002DE95D
:1028100000204DE90000A0E104D04DE20100BDE838
:10282000004020E900E0A0E10100BDE8FF7F4EE9A3
:102830000000A0E13CE04EE200004FE101002EE983
:1028400078009FE5000090E501002EE968009FE513
:10285000001090E500E081E568009FE50FE0A0E151
:1028600010FF2FE1000050E30200000A50009FE536
:102870000FE0A0E110FF2FE10100A0E348109FE569
:10288000000081E544009FE5000080E528009FE509
:10289000000090E500E090E520009FE50200BEE822
:1028A000001080E50100BEE800F06FE1FF7FDEE888
:1028B0000000A0E13CE09EE504F05EE26000004024
:1028C0009C0000407D0C0000B5080000004000E0C6
:1028D00030F0FFFF7847C046A6FFFFEA00C09FE543
:1028E0001CFF2FE1B50800007847C04600000FE14B
:1028F000801080E301F021E1800000E21EFF2FE163
:102900007847C04600000FE18000C0E300F021E1FD
:102910001EFF2FE17847C04601C05EE50C0053E181
:102920000100003A0C30DEE7000000EA0330DEE789
:1029300083C08EE01CFF2FE15829000000000040FA
:10294000BC00000048010000142A0000BC00004048
:10295000FC3B00007001000000100000110100129B
:1029600001001301001401001501001601001701F8
:10297000001801001901001A01001B01001D0100CF
:102980001E01001F010110010111010112010113BB
:1029900001011401011501011601011701011801BE
:1029A000011901011A01011B01011D01011E010193
:1029B0001F011E00000000000000000000000000D9
:1029C0000000000000000000000000000000000007
:1029D00000000000000000000000000000000000F7
:1029E00000000000000000000000000000000000E7
:1029F000000000000F2700000000000000000000A1
:102A00000000000000000000F8330000000000009B
:042A100000000000C2
:0400000500000104F2
:00000001FF
