:020000040000FA
:1000000018F09FE518F09FE518F09FE518F09FE5C0
:1000100018F09FE50000A0E1F0FF1FE518F09FE554
:1000200058000000400000004C250000480000007F
:100030004C000000000000005000000054000000D0
:10004000FEFFFFEAFEFFFFEAFEFFFFEAFEFFFFEA18
:10005000FEFFFFEAFEFFFFEA94009FE5AA10A0E37F
:100060005520A0E32430A0E3043080E50130A0E374
:10007000003080E50C1080E50C2080E5083090E52C
:10008000013B13E2FCFFFF0A0330A0E3003080E5F0
:100090000C1080E50C2080E558009FE50410A0E3DB
:1000A000041080E50210A0E3001080E548009FE501
:1000B000DBF021E300D0A0E1080040E2D7F021E32B
:1000C00000D0A0E1080040E2D1F021E300D0A0E19F
:1000D000080040E2D2F021E300D0A0E1030C40E2AE
:1000E000D3F021E300D0A0E1030C40E20C009FE537
:1000F00010FF2FE180C01FE000C01FE0B83C0040AF
:1001000004010000000000EB2E0000EB2C008FE249
:10011000000C90E800A08AE000B08BE001704AE299
:100120000B005AE10000001A260000EB0F00BAE8AD
:1001300018E04FE2010013E303F0471013FF2FE133
:10014000B8250000D8250000102052E27800B02821
:100150007800A128FBFFFF8A822EB0E13000B02892
:100160003000A12800409045004081451EFF2FE14E
:100170000030B0E30040B0E30050B0E30060B0E313
:10018000102052E27800A128FCFFFF8A822EB0E105
:100190003000A128003081451EFF2FE101C08FE211
:1001A0001CFF2FE11FB5059886460FBC009C02B0CE
:1001B0007047000001C08FE21CFF2FE130B475468C
:1001C000AE4630BC70470000A00800EB0210A0E172
:1001D000F1FFFFEB1CC09FE50FC08CE001001CE3AA
:1001E0000DE08F120FE0A0011CFF2FE101C08FE294
:1001F0001CFF2FE102F05CF9750200007847C04651
:1002000003002DE9EAFFFFEB0300BDE8AF0800EBB8
:100210000C009FE50C109FE504209FE508309FE54A
:100220001EFF2FE198360040A0390040983600406C
:1002300001002DE900204DE90000A0E104D04DE2CD
:100240000100BDE8004020E900E0A0E10100BDE8B8
:10025000FF7F4EE90000A0E13CE04EE200004FE1EC
:1002600001002EE94C009FE5000090E501002EE919
:1002700044009FE5001090E500E081E53C009FE52B
:100280000FE0A0E110FF2FE12C009FE5000090E5BA
:1002900000E090E51C009FE50200BEE8001080E54C
:1002A0000100BEE800F06FE1FF7FDEE80000A0E1A2
:1002B0003CE09EE504F05EE29C00004060000040EF
:1002C0008105000000205BE041004118514A515C6B
:1002D000002902D0012950D127E0410041184D4AA0
:1002E0008918897800290CD14B4989684200821805
:1002F000484BD218537801229A409143464A916064
:1003000012E041004118434A8918897801290BD12C
:1003100041498968420082183E4BD2185378012225
:100320009A4011433C4A916028E041004118394A03
:100330008918897800290CD13749896942008218C7
:10034000344BD218537801229A409143324A91613A
:1003500012E0410041182F4A8918897801290BD1F0
:100360002D498969420082182A4BD21853780122FC
:100370009A401143284A916100E0C046C046401CA3
:100380002649098888429FDB70470200002A02D074
:10039000012A0CD105E0204B1B68CB40D807C00FC9
:1003A00005E01D4B1B69CB40D807C00FC046C046B7
:1003B000704710B4002802D0012827D113E0002A8A
:1003C00007D1154BDB6801248C402343124CE360BA
:1003D00008E0012A06D1104B5B6801248C402343BE
:1003E0000D4C636012E0002A07D10B4BDB6901243E
:1003F0008C402343084CE36108E0012A06D1064BF8
:100400005B6901248C402343034C6361C04610BCEC
:100410007047000000000040008002E05A000040E9
:100420007D20C0001649C8600800406801210843CB
:1004300013494860704710B5E120400200F024F8ED
:10044000FFF740FFFFF7ECFF01200E49087010BCDA
:1004500008BC1847FFF7EFFF01F04CFE00F06FFDFE
:10046000C046FEE706484068022108430449486048
:100470000800406802218843014948607047000035
:10048000008000E000C11FE070B505005A48006818
:100490000121090408435849086008000068012147
:1004A00089040843544908602E013100534802F082
:1004B0001BF804005248007B802108435049087310
:1004C0000C70240A0C71072008720320087348146A
:1004D000C068802188434B49C860080000698021BA
:1004E0000843484908614848484948602720484926
:1004F000486043480079032108434149087170BCB2
:1005000008BC1847010043480078012809D10020A1
:10051000404A10704048007800060016087001201C
:1005200070470020FCE7364A1070704770B5050030
:100530000C003A480078002820D1002D1ED0384900
:100540000C7036490C70002303E0E85C3549C85450
:100550005B1CA342F9DB31490A780978491E2F4E0A
:1005600031702F490978891A2E4A515C09060816FC
:10057000FFF7D9FF012070BC08BC18470020FAE73C
:1005800010B41F4A107A2EE00207120F022A0BD075
:10059000042A1CD0062A02D00C2A20D116E0184AC0
:1005A000127D110609161BE01C4A1278002A0CDD88
:1005B0001A4A13781278521E184C2270184A127870
:1005C000D21A184B9A5C0E4B1A7009E0C0460C4ABE
:1005D0001278114B1A7001220E4B1A7000E0C046BF
:1005E000C046074A107AC207D20F002ACCD0002298
:1005F000044B1A6310BC704700C002E000879303ED
:10060000000001E000F0FFFF3002000000F1FFFFFA
:1006100000F2FFFF5D0000405C0000405F00004012
:100620005E000040BC00004010B5002406E014212C
:100630006143FD4A881800F087FF641C042CF6D340
:10064000FA4800F081FFFA4800F07EFFF94800F018
:100650007BFFF94800F078FFF84800F075FFF34899
:10066000F7490860F248F749086010BC08BC184711
:1006700010B5040001F032FCF3480068401CF24958
:100680000860F2480068002808D1F04804600800BB
:10069000006801280ED1FFF7C7FF0BE0EC480068A7
:1006A000002807D1E9480068C06AE16A884201D899
:1006B000E6480460E7480068401CE6490860E649EF
:1006C000E06A0968884202D9E349E06A08601422B6
:1006D000E16A5143D44A8818211D00F045FF01F01A
:1006E00008FCDB480068002807D0D8480068C06ACA
:1006F000E16A884201D201F0D3FF10BC08BC184760
:10070000FFB581B00E000A9F0C9C216B0398401E20
:100710008000081800900098C008C0000090002ECB
:1007200011D0002508E0715D200034304155705D26
:10073000002800D102E06D1C102DF4D3C04600212A
:100740004320015502E0002134200155042F00D33D
:100750000327E762201D00F004FF2000183000F09E
:1007600000FF24610420C01BA0616462002060645B
:10077000002148200155049A684603C801F046FB51
:1007800020600B98002801D00B98046005B0F0BCE5
:1007900008BC1847FFB585B01700B80001F0F5FB9D
:1007A0000600002E0BD04C2001F0EFFB0400002CC3
:1007B00001D0266304E0300001F03CFC00E000249E
:1007C000002C10D000220EA803C86B4613C303925E
:1007D0003A00089B05A803C8FFF792FF2000FFF727
:1007E00047FF012501E00025ED43280009B0F0BCDA
:1007F00008BC1847924909680968002901D10121FC
:1008000000E00021002904D00021C943934A11606F
:1008100006E08B490968C968C868904A4168116058
:10082000704710B50400206B01F004FC200001F0BB
:1008300001FC10BC08BC184770B5050001F04EFB68
:10084000002D02D18148006800E028000400201D2E
:1008500000F0B2FEA06A002803D02000183000F09B
:10086000ABFE7C480068401C7A4908607748006805
:10087000844209D1211D704800F076FE7848006856
:10088000401C7749086009E06F480068401E6E49C7
:1008900008602000FFF7C5FFFFF7ACFF01F029FB60
:1008A0006B480068002805D068480068844201D180
:1008B00001F0F6FE70BC08BC1847F8B500200090A7
:1008C0006848006800286AD167480068451C664887
:1008D0000560002D0FD15A4807685A4800685849EA
:1008E00008605848076061480068401C5F4908601C
:1008F000FFF780FFC0465948006885423DD3C04697
:100900004F4800680068002801D1012000E0002065
:10091000002804D00020C043504908602CE048481B
:100920000068C068C4686668B54202D24B48066079
:1009300022E0201D00F040FEA06A002803D0200025
:10094000183000F039FE4449E06A0968884202D94B
:100950004149E06A08601422E16A5143324A88182A
:10096000211D00F001FE3949E06A0968C96A884220
:10097000C6D301200090C3E7C04634480068C06A6F
:100980001421484328490858012801D90120009022
:1009900037480068002801D00120009004E0354865
:1009A0000068401C334908600098F8BC08BC184730
:1009B00070B50024002601F091FA2A480068401E14
:1009C0002849086008000068002875D11E480068A2
:1009D000002871D022E01748C068C4682000183091
:1009E00000F0EAFD201D00F0E7FD1B49E06A096800
:1009F000884202D91849E06A08601422E16A51432A
:100A0000094A8818211D00F0AFFD1049E06A096805
:100A1000C96A884202D30120154908600548006868
:100A2000002829D1012028E084010040D4010040A1
:100A3000E8010040FC010040100200402402004098
:100A4000640000406800004070000040600000400A
:100A50007C0000408C000040780000409000004086
:100A60006C00004098000040740000408800004086
:100A7000840000408000004000200028ABD0002C03
:100A800001D0FFF7B7FEFE480568002D0DD0C04627
:100A9000FFF713FF002802D00120FA4908606D1EFD
:100AA000002DF5D10020F6490860F64800680028BE
:100AB00002D0012601F0F4FD01F01BFA300070BCF9
:100AC00008BC1847F8B505000E00EF480768EF4866
:100AD0000068001D00F070FD681C002808D1002E81
:100AE00006D0EA480168091DE94800F03DFD1AE01A
:100AF0007C19E64800684460BC4207D2E3480168BC
:100B0000091DE448006800F03BFD0CE0DF48016887
:100B1000091DE148006800F033FDE04800688442A8
:100B200001D2DE480460F8BC08BC1847DC48006805
:100B3000401CDB4908607047F3B581B00400002019
:100B40000090FFF7F3FFD0480668216802980D185F
:100B50002068B04207D92068A8420BD9B54209D90C
:100B60000120009006E02068A84201D8B54201D9D2
:100B70000120009025600098002803D0A81B0021C8
:100B8000FFF7A0FFFFF714FF0700002F01D101F0CE
:100B900087FDFEBC08BC184770B504000025002C7A
:100BA00008D0FFF7C3FF00212000FFF78BFFFFF7FE
:100BB000FFFE0500002D01D101F072FD70BC08BCE4
:100BC000184770B5040001F089F9002C02D1AF4834
:100BD000006800E020000600F56A01F08AF92800AC
:100BE00070BC08BC184710B401000023002902D1D2
:100BF000A64C246800E00C002200D06A10BC7047AC
:100C0000FEB507000D0000200090042D00D3032541
:100C100001F064F9002F02D19C48006800E0380020
:100C20000400E66AAE4244D0B5420BD9974800684A
:100C300084420DD095480068C06AA84208D80120B7
:100C4000009005E091480068844201D101200090A5
:100C5000E06A0190E562A069C00FC007002802D1D8
:100C60000420401BA06161691422019850438D4A01
:100C70008018814201D1012000E00020002812D01C
:100C8000201D00F099FC8849E06A0968884202D971
:100C90008549E06A08601422E16A5143814A881854
:100CA000211D00F061FC0098002801D001F0F8FC43
:100CB000C04601F01EF9FEBC08BC18477848006821
:100CC000002803D001206F49086027E000206D490B
:100CD00008607548016800E0491E14204843714AC5
:100CE0001058002801D1012000E000200028F3D195
:100CF00014224A436B4BD01842685268426002008B
:100D000008324368934202D14268526842604268A6
:100D1000D2685E4B1A6064480160C046704770B587
:100D2000050001F0DBF8002D02D15848006800E012
:100D300028000400201D00F03FFCA06A002803D01A
:100D40002000183000F038FC211D514800F00CFC48
:100D50004820005D012802D100214820015501F002
:100D6000C8F852480068002805D001F0B7F8FFF72E
:100D700041FD01F0BEF845480068844212D14B485D
:100D80000068002802D001F08BFC0BE040480068AE
:100D900047490968884203D100203C49086001E0C6
:100DA000FFF78CFF70BC08BC184710B4010000208E
:100DB0000A00374C5369A34201D1012300E000230C
:100DC000002B11D03B4C936AA34201D1012300E0D8
:100DD0000023002B08D1936A002B01D1012300E0EE
:100DE0000023002B00D0012010BC704770B5050017
:100DF0002C0026480068844225D0002C23D001F026
:100E00006DF82000FFF7D1FF00281AD0201D00F058
:100E1000D3FB2549E06A0968884202D92249E06A81
:100E200008601422E16A51431E4A8818211D00F00F
:100E30009BFB1649E06A0968C96A884201D301F040
:100E40002FFC01F056F870BC08BC1847F8B5050037
:100E500000262C0000272000FFF7A7FF002840D025
:100E60000F480068002837D10849E06A0968C96A54
:100E7000884200D30126201D00F09EFB0A491BE09A
:100E8000800000408400004074000040600000408A
:100E900024020040680000406400004090000040D0
:100EA0009800004084010040780000407C00004031
:100EB00070000040FC010040E06A0968884202D9E5
:100EC000FE49E06A08601422E16A5143FC4A88182E
:100ED000211D00F049FB04E021001831F94800F021
:100EE00043FB3000F8BC08BC184710B516E000F012
:100EF000F5FFF548C068C468201D00F05DFBF348AD
:100F00000068401EF1490860F1480068401EF04941
:100F1000086000F0EEFF2000FFF783FCEC4800685B
:100F20000028E4D110BC08BC1847C046FFF7DDFF1D
:100F3000E34800680128F9D901F0B2FBF6E71CB5D7
:100F4000E44800210B00642200910190E2A1E448F2
:100F5000FFF720FC0400012C0CD101F0A5FBA01E22
:100F6000E04908600120E04908600020DF4908608E
:100F700000F0AAFF1CBC08BC184710B501F094FB98
:100F80000020D949086000F0A8FF10BC08BC184731
:100F900010B500F0A3FFD548046800F0AAFF2000B8
:100FA00010BC08BC18470021D04A10687047C748D9
:100FB000006870470100002902D1CD48006800E0B8
:100FC0000800020010003430704770B5040000259E
:100FD000FFF7ACFDC74800680019C6490860FFF775
:100FE000E7FC0500280070BC08BC184770B5050078
:100FF0000C00BF4801681831280000F0C1FA012137
:101000002000FFF75FFD70BC08BC184770B50600F4
:101010000C0015000120C0072043B549096888610C
:10102000B34801681831300000F09EFA0121280011
:10103000FFF748FD70BC08BC184770B50600F068A3
:10104000C4682000183000F0B7FAAB4800680028E8
:1010500013D1201D00F0B0FA9849E06A096888426F
:1010600002D99649E06A08601422E16A5143944A21
:101070008818211D00F078FA04E021001831914809
:1010800000F072FA9A49E06A0968C96A884204D98C
:10109000012501209949086000E00025280070BC66
:1010A00008BC184770B505000E000120C00730438A
:1010B0002860EC68280000F07FFA201D00F07CFA20
:1010C0007E49E06A0968884202D97C49E06A086082
:1010D0001422E16A51437A4A8818211D00F044FA2B
:1010E0008349E06A0968C96A884202D901208349B4
:1010F000086070BC08BC184710B5040000F0EEFE94
:101100007F480068206079480068606000F0F1FE68
:1011100010BC08BC18477A4909680160734909681E
:101120004160704770B506000C0000F0D7FE6F48B4
:1011300002687068131A2068401C002801D100253D
:1011400017E06F4930680968884204D0706890429F
:1011500001D801250DE02068984207D92068C01AFF
:1011600020603000FFF7D7FF002502E0002020605C
:10117000012500F0BEFE280070BC08BC1847012005
:101180005E49086070475A49096888695849096882
:10119000C96A0422511A564A12689161704770B5A3
:1011A00006000D0000F09AFE51480068406C0028CF
:1011B0000BD101214E48006840300172002D04D04F
:1011C0002800FFF77FFC01F06BFA00F092FE00F0C0
:1011D00085FE47480068446C002C0AD0002E04D0DD
:1011E000002043490968486403E0601E40490968DB
:1011F000486400213E4800684030017200F079FEEA
:10120000200070BC08BC1847FFB581B0070014006F
:101210001D0000F063FE364800684030007A022866
:1012200012D03349096808004430496CB943016061
:1012300001212F48006840300172002D04D02800A1
:10124000FFF740FC01F02CFA00F053FE00F046FEE0
:10125000002C03D026480068406C206024480068B9
:101260004030007A022801D0002608E020490968B1
:10127000080044304A6C02998A430260012600212A
:101280001B4800684030017200F033FE300005B0AA
:10129000F0BC08BC1847FFB583B00D0016001F0056
:1012A00001200290039C00F019FE002F01D0606C19
:1012B00038604820005D0190022123E07800004062
:1012C00084010040FC01004010020040700000401A
:1012D0006C0000409400004049444C450000000070
:1012E0002B0F0000900000407C0000407400004084
:1012F00060000040800000409800004084000040F2
:101300008800004048200155330001F0E3F905163C
:1013100004080C0E1700606C284360640FE0606CDA
:10132000401C60640BE0656409E00198022801D06C
:10133000656401E00020029001E000E0C046C04684
:10134000019801281AD1201D00F036F97849E06A89
:101350000968884202D97649E06A08601422E16A85
:101360005143744A8818211D00F0FEF87249E06A62
:101370000968C96A884201D901F092F900F0B9FD03
:10138000029807B0F0BC08BC1847FFB583B00D0049
:1013900016001F0001200190039C00200090002FE8
:1013A00001D0606C38604820005D02900221482026
:1013B0000155330001F08EF9051604080C0E1700D4
:1013C000606C284360640FE0606C401C60640BE05C
:1013D000656409E00298022801D0656401E00020FC
:1013E000019001E000E0C046C046029801282BD1E0
:1013F00052480068002813D1201D00F0DDF84C4948
:10140000E06A0968884202D94949E06A0860142202
:10141000E16A5143474A8818211D00F0A5F804E00D
:1014200021001831464800F09FF84349E06A0968F6
:10143000C96A884208D90C98002802D001210C986A
:10144000016001203F490860019807B0F0BC08BC6A
:101450001847F8B505000E002C0000200090482029
:10146000075D02210155606C401C6064012F29D189
:1014700032480068002813D1201D00F09DF82C4947
:10148000E06A0968884202D92949E06A08601422A2
:10149000E16A5143274A8818211D00F065F804E0ED
:1014A00021001831264800F05FF82349E06A0968F6
:1014B000C96A884206D9002E01D00120306001207F
:1014C00020490860F8BC08BC184770B50500002D1D
:1014D00002D11948006800E02800060000F0FEFC78
:1014E0004820805D022804D1002148208155012434
:1014F00000E0002400F0FDFC200070BC08BC184790
:10150000F8B504000D00002C02D10B48006800E083
:101510002000060000F0E2FC07480068476C706C91
:10152000A843706400F0E5FC3800F8BC08BC18471C
:1015300078000040840100406000004098000040B6
:10154000FC0100408400004001000831416000219E
:10155000C943816001000831C1600161002101605F
:10156000704700210161704742684A6093688B6050
:10157000936859609160086103685B1C0360704761
:1015800010B402000B685C1C002C01D1106907E04C
:101590001000083000E04068446824689C42FAD992
:1015A00044684C604C68A160886041600A611468BE
:1015B000641C146010BC704701000A694B6888689D
:1015C0009860081D09C858605068884201D1886831
:1015D0005060002008611068401E1060106870475D
:1015E00070B505000E002C0000F078FC216CE06B5B
:1015F000484321684018A0600020A0632068606014
:10160000E06B401E216C484321684118E1600021D5
:10161000C9434420015545200155002E10D12069B1
:10162000002801D1012000E00020002810D1200076
:101630001030FFF702FD00280AD001F031F807E072
:1016400020001030FFF780FF20002430FFF77CFFE0
:1016500000F04FFC012070BC08BC1847F8B506002C
:101660000D001700069C002D01D1246000E02760CA
:10167000E663256401212000FFF7B2FFF8BC08BC37
:101680001847FEB505000E001700280070430290B1
:1016900002990800483000F078FC0400002C0BD0C0
:1016A0000194019C2000483001903B0000943100DF
:1016B0002800019AFFF7D2FF2000FEBC08BC1847A3
:1016C00070B5040000F00AFC4520055714E0606A7C
:1016D000002801D1012000E00020002808D12000CE
:1016E0002430FFF7AAFC002803D0FFF748FD00E0F4
:1016F00004E0681E00060516002DE8DCC046002147
:10170000C9434520015500F0F4FB00F0E7FB4420FD
:10171000055714E02069002801D1012000E00020D5
:1017200000280BD120001030FFF787FC002801D0E3
:10173000FFF725FD681E0006051600E001E0002DFC
:10174000E8DCC0460021C9434420015500F0D1FB2C
:1017500070BC08BC184770B5050000F0BFFBA86B53
:10176000E96B884201D1012400E0002400F0C1FBB4
:10177000200070BC08BC1847F8B504000F00150025
:1017800000200090A66B206C002827D0002D0FD1E0
:101790003900226C606800F0F9FC216C6068401828
:1017A0006060A1686068884218D32068606015E0B6
:1017B0003900226CE06800F0E9FC216CE068411A15
:1017C000E1602168E068884203D2216CA068411A78
:1017D000E160022D02D1002E00D0761E701CA063A5
:1017E0000098F8BC08BC1847FFB583B007001D007F
:1017F000002002903C00C04600F070FBA06BE16B43
:10180000884201D3022D21D12A0020000499FFF73C
:10181000B3FF0600606A002801D1012000E000202B
:10182000002808D120002430FFF707FC002806D04C
:1018300000F036FF03E0002E01D000F031FF00F091
:1018400058FB012007B0F0BC08BC184705980028D9
:1018500003D100F04EFB0020F4E70298002804D1E9
:101860006846FFF758FC0120029000F042FBFFF7AA
:101870005DF900F033FB44210857401C002802D1D9
:1018800000214420015545210857401C002802D161
:1018900000214520015500F02CFB05A96846FFF703
:1018A00041FC002819D12000FFF755FF00280ED079
:1018B000200010300599FFF799FB2000FFF700FF8B
:1018C000FFF776F8002897D100F0EAFE94E72000B1
:1018D000FFF7F6FEFFF76CF88EE72000FFF7F0FE4B
:1018E000FFF766F80020ADE7FFB585B005001600EC
:1018F0001F002C0000200390A06BE16B884201D3F5
:10190000022F29D1452001570291A06B01903A0086
:1019100020000699FFF730FF0298401C002812D1E2
:10192000606A002801D1012000E00020002809D1D0
:1019300020002430FFF781FB002803D0002E01D0C7
:101940000120306005E00298401C01060916452080
:1019500001550120049001E000200490049809B092
:10196000F0BC08BC1847FEB505000E002C00002096
:101970000290A06B0190E16B0198814224D945202F
:10198000015700910198401CA0630098401C00285A
:1019900012D1606A002801D1012000E00020002857
:1019A00010D120002430FFF748FB00280AD0002E79
:1019B00008D00120306005E00098401C010609169F
:1019C00045200155012700E000273800FEBC08BC77
:1019D000184770B5050000F081FAA86B002801D106
:1019E000012400E0002400F084FA200070BC08BC50
:1019F000184770B504000D00206C00280ED0216C33
:101A0000E0684118E160A168E068884201D321687C
:101A1000E1602800226CE16800F0B8FB70BC08BCF3
:101A20001847F7B582B0050000272C00C04600F02B
:101A300055FAA66B002E1CD020000399FFF7D9FFA2
:101A4000701EA0632069002801D1012000E0002061
:101A5000002807D120001030FFF7EFFA002801D04E
:101A600000F01EFE00F045FA012005B0F0BC08BCF5
:101A700018470498002803D100F03BFA0020F4E74F
:101A8000002F03D16846FFF746FB012700F031FA2B
:101A9000FFF74CF800F022FA44210857401C0028B8
:101AA00002D100214420015545210857401C00283F
:101AB00002D100214520015500F01BFA04A9684617
:101AC000FFF730FB002819D12000FFF782FF002824
:101AD0000ED0200024300499FFF788FA2000FFF789
:101AE000EFFDFEF765FF0028A1D100F0D9FD9EE7CC
:101AF0002000FFF7E5FDFEF75BFF98E72000FFF70A
:101B0000DFFDFEF755FF2000FFF763FF00288ED0B2
:101B10000020AAE7F3B583B0050000272C00C046DB
:101B200000F0DCF9A66B002E18D0701EA0632069AF
:101B3000002801D1012000E00020002807D120006A
:101B40001030FFF77AFA002801D000F0A9FD00F06C
:101B5000D0F9012005B0F0BC08BC18470498002853
:101B600003D100F0C6F90020F4E7002F03D101A84B
:101B7000FFF7D1FA012700F0BCF9FEF7D7FF00F01C
:101B8000ADF944210857401C002802D1002144200F
:101B9000015545210857401C002802D1002145204D
:101BA000015500F0A6F904A901A8FFF7BBFA002827
:101BB00019D12000FFF70DFF00280ED0200024309F
:101BC0000499FFF713FA2000FFF77AFDFEF7F0FE05
:101BD0000028A5D100F064FDA2E72000FFF770FD0A
:101BE000FEF7E6FE9CE72000FFF76AFDFEF7E0FE49
:101BF0002000FFF7EEFE002892D00020AAE7F7B5FC
:101C000084B0050000272C00C04600F067F9A06BE7
:101C10000190019800281CD0E66820000599FFF784
:101C2000E8FEE660606A002801D1012000E00020A3
:101C3000002807D120002430FFF7FFF9002801D049
:101C400000F02EFD00F055F9012007B0F0BC08BCF3
:101C500018470698002803D100F04BF90020F4E75C
:101C6000002F03D102A8FFF756FA012700F041F92F
:101C7000FEF75CFF00F032F944210857401C0028B1
:101C800002D100214420015545210857401C00285D
:101C900002D100214520015500F02BF906A902A828
:101CA000FFF740FA002819D12000FFF792FE002824
:101CB0000ED0200024300699FFF798F92000FFF796
:101CC000FFFCFEF775FE00289FD100F0E9FC9CE7C1
:101CD0002000FFF7F5FCFEF76BFE96E72000FFF70C
:101CE000EFFCFEF765FE2000FFF773FE00288CD0A6
:101CF0000020AAE7F7B584B0050016002C000020EC
:101D00000390A06B02900298002828D0442001572D
:101D1000019120000599FFF76CFE0298401EA06318
:101D20000198401C002812D12069002801D101200F
:101D300000E00020002810D120001030FFF77DF9CE
:101D400000280AD0002E08D00120306005E001985C
:101D5000401C0106091644200155012700E0002718
:101D6000380007B0F0BC08BC1847F3B581B00500D7
:101D70002C0000200090A06B002807D0E76820000E
:101D80000299FFF736FEE760012600E000263000EA
:101D9000FEBC08BC184770B5040000F09FF8A56BA6
:101DA00000F0A7F8280070BC08BC184770B5040004
:101DB000250000F093F8A96BE86B461A00F099F83B
:101DC000300070BC08BC184701000A00906B7047D7
:101DD00070B504002500280000F02CF970BC08BC88
:101DE000184701000A00936B002B01D1012000E08D
:101DF0000020704710B401000A00936BD46BA3421B
:101E000001D1012000E0002010BC704730B4030075
:101E1000001F0C1D0460001F3F4C0460001F036086
:101E2000001F3E4C0460001F3D4C0460001F3D4CF1
:101E30000460001F3C4C0460001F3C4C0460001F09
:101E40003B4C0460001F3B4C0460001F3A4C046094
:101E5000001F3A4C0460001F394C0460001F394CCD
:101E60000460001F64100460001F0260001F1F2434
:101E70000460CC07E40F002C03D0202504682C4319
:101E80000460001F0024046030BC704700212E4A0B
:101E9000D1602E4811008861032151615114C96835
:101EA000102291432A4AD16011000969102211437E
:101EB000274A11612749284A11602421274A1160C5
:101EC0000121214A5160704710B5FFF7DFFF00F094
:101ED0001FFB002010BC08BC1847704710B500F06D
:101EE000E3FB1F480068401C1D49086010BC08BC8B
:101EF000184710B51A48006800280AD0184800682A
:101F0000401E1749086008000068002801D100F051
:101F1000D7FB10BC08BC1847AAAAAAAA1212121210
:101F200011111111101010100909090908080808E9
:101F30000707070706060606050505050404040449
:101F40000303030302020202004000E060EA000013
:101F500000F0FFFFD825000000F1FFFF00F2FFFFB7
:101F60009C000040454AD008C000454A106000224D
:101F7000434B5A60434A444B5A6000221A600100A6
:101F8000404A4A601A000A607047F8B50400002011
:101F90000090FEF7CBFD3D480068002804D1FFF714
:101FA000E1FF012039490860002C09D0083460079E
:101FB000400F002804D06007400F0821081A0419B8
:101FC000002C31D02F4884422ED22D4F3800056886
:101FD00001E02F002D686868A04202D2286800281E
:101FE000F7D1294885421FD038680830009028680A
:101FF00038606868001B102810D92E196868001B0B
:1020000070606C6071681E4800E000680268526889
:102010008A42FAD3026832600660C0461C4968688A
:102020000968081A1A490860FEF7C2FC0098F8BC53
:1020300008BC184770B506003500002E16D0083DC4
:102040002C00FEF773FD61680D4800E0006802682F
:1020500052688A42FAD30268226004600C496068C0
:10206000096840180A490860FEF7A2FC70BC08BC69
:10207000184707480068704770470000400200405A
:10208000A0000040F8330000A8000040B400004069
:10209000B000004010210020FEF777F90500C0468F
:1020A00010210020FEF771F90400012C08D1002D49
:1020B00006D100231A0019002B480068FFF794FB93
:1020C00025003220FEF768FDEAE70024C046002123
:1020D000C94325480068FFF71DFD0128F7D1012CF1
:1020E00000D000E000200400220011210020FEF7B3
:1020F00060F9ECE71FB5002211211000FEF759F935
:1021000003A80121002364220091019017A11A481D
:10211000FEF740FB0400012C0FD102A8022100238E
:1021200064220091019015A11748FEF733FB0400CB
:10213000012C02D00398FEF77FFB0322002101202F
:10214000FFF79FFA0849086008000068002806D1D8
:102150000398FEF771FB0298FEF76EFB0024200047
:1021600004B010BC08BC1847B80000404C454420DF
:10217000546F67676C650000CB2000004275747473
:102180006F6E205461736B00952000007847C04645
:10219000030052E32A00009A03C010E20800000A7C
:1021A0000130D1E402005CE30C2082E001C0D19454
:1021B0000130C0E40130D13401C0C094042042E2B7
:1021C0000130C034033011E28700000A042052E2DB
:1021D0001B00003A03C031E7020053E30800000A85
:1021E0000F00008A2C34A0E104C0B1E5042052E2C3
:1021F0000C3C83E1043080E4F9FFFF2A011081E206
:102200000F0000EA2C38A0E104C0B1E5042052E23E
:102210000C3883E1043080E4F9FFFF2A021081E2E8
:10222000070000EA2C3CA0E104C0B1E5042052E222
:102230000C3483E1043080E4F9FFFF2A031081E2CB
:102240000000A0E1822FB0E10130D12401C0D124EF
:102250000120D1440130C02401C0C0240120C04469
:102260001EFF2FE1013090E12100004A0020B0E381
:10227000A03071E01A00003A203271E00F00003AFD
:10228000203471E00100003A00C0A0E3200000EA21
:10229000A03371E0810340200220B2E0203371E0DE
:1022A000010340200220B2E0A03271E08102402010
:1022B0000220B2E0203271E0010240200220B2E0B0
:1022C000A03171E0810140200220B2E0203171E0B4
:1022D000010140200220B2E0A03071E081004020E6
:1022E0000220B2E0011050E00010A0310200A2E094
:1022F0001EFF2FE1022111E20010614240C032E0D6
:1023000000006022203271E01D00003A203471E0AC
:102310000F00003A0113A0E1203471E03F2382E373
:102320000B00003A0113A0E1203471E03F2682E364
:102330000700003A0113A0E1203471E03F2982E355
:102340000113A0213F2C8223003071E21D00002ADE
:102350002113A021A03371E0810340200220B2E0CC
:10236000203371E0010340200220B2E0A03271E08E
:10237000810240200220B2E0203271E001024020C0
:102380000220B2E0A03171E0810140200220B2E0E1
:10239000203171E0010140200220B2E0EBFFFF2A72
:1023A000A03071E0810040200220B2E0011050E036
:1023B0000010A0310200A2E0CCCFB0E100006042EA
:1023C000001061221EFF2FE1CCCFB0E1000060427F
:1023D00001402DE90000B0E30000A0E10240BDE8AB
:1023E0001EFF2FE1704770477047000010402DE935
:1023F000202052E20500003A1850B1E8202052E2B5
:102400001850A0E81850B1E81850A0E8F9FFFF2ACA
:1024100002CEB0E11850B1281850A0281800B148D9
:102420001800A0481040BDE802CFB0E1043091246C
:10243000043080241EFF2F01822FB0E1B230D12062
:102440000120D144B230C0200120C0441EFF2FE142
:102450000E50A0E11A0000EB05E0A0E10050B0E151
:102460000D10A0E10A30A0E10700C0E300D0A0E118
:1024700060D08DE220402DE964F7FFEB2040BDE8FD
:102480000060A0E30070A0E30080A0E300B0A0E340
:102490000710C1E305C0A0E1C009ACE8C009ACE881
:1024A000C009ACE8C009ACE801D0A0E11EFF2FE1F3
:1024B00010B50400C046C0462000FDF79FFE10BCCA
:1024C00008BC184700009FE51EFF2FE1383600408A
:1024D00001C08FE21CFF2FE101491820ABDFFEE7AE
:1024E000260002001EFF2FE17847C0460020B0E31F
:1024F000203171E077FFFF3AA03271E06CFFFF3AC4
:10250000203471E061FFFF3A00C0A0E380FFFFEAE2
:102510007847C0466C019FE5000090E500E090E53B
:1025200064019FE50200BEE8001080E50100BEE8FE
:1025300000F06FE1FF7FDEE80000A0E13CE09EE5F7
:1025400004F05EE2000000EF1EFF2FE104E08EE2E7
:1025500001002DE900204DE90000A0E104D04DE28A
:102560000100BDE8004020E900E0A0E10100BDE875
:10257000FF7F4EE90000A0E13CE04EE200004FE1A9
:1025800001002EE900019FE5000090E501002EE921
:10259000F0009FE5001090E500E081E5EC009FE58C
:1025A0000FE0A0E110FF2FE1D8009FE5000090E5CB
:1025B00000E090E5D0009FE50200BEE8001080E555
:1025C0000100BEE800F06FE1FF7FDEE80000A0E15F
:1025D0003CE09EE504F05EE201002DE900204DE9BB
:1025E0000000A0E104D04DE20100BDE8004020E978
:1025F00000E0A0E10100BDE8FF7F4EE90000A0E19E
:102600003CE04EE200004FE101002EE978009FE53A
:10261000000090E501002EE968009FE5001090E5BC
:1026200000E081E568009FE50FE0A0E110FF2FE1E9
:10263000000050E30200000A50009FE50FE0A0E117
:1026400010FF2FE10100A0E348109FE5000081E5A5
:1026500044009FE5000080E528009FE5000090E52C
:1026600000E090E520009FE50200BEE8001080E554
:102670000100BEE800F06FE1FF7FDEE80000A0E1AE
:102680003CE09EE504F05EE2600000409C000040FB
:10269000BD0C0000BB080000004000E030F0FFFF70
:1026A0007847C046A6FFFFEA7847C04600000FE122
:1026B000801080E301F021E1800000E21EFF2FE1A5
:1026C0007847C04600000FE18000C0E300F021E140
:1026D0001EFF2FE17847C04601C05EE50C0053E1C4
:1026E0000100003A0C30DEE7000000EA0330DEE7CC
:1026F00083C08EE01CFF2FE118270000000000407F
:10270000BC00000048010000D4270000BC000040CD
:10271000FC3B0000700100000010000011010012DD
:10272000010013010014010015010016010017013A
:10273000001801001901001A01001B01001D010011
:102740001E01001F010110010111010112010113FD
:102750000101140101150101160101170101180100
:10276000011901011A01011B01011D01011E0101D5
:102770001F011E000000000000000000000000001B
:102780000000000000000000000000000000000049
:102790000000000000000000000000000000000039
:1027A0000000000000000000000000000000000029
:1027B000000000000F2700000000000000000000E3
:1027C0000000000000000000F833000000000000DE
:0427D0000000000005
:0400000500000104F2
:00000001FF
