:020000040000FA
:1000000018F09FE518F09FE518F09FE518F09FE5C0
:1000100018F09FE50000A0E1F0FF1FE518F09FE554
:100020005800000040000000D024000048000000FC
:100030004C000000000000005000000054000000D0
:10004000FEFFFFEAFEFFFFEAFEFFFFEAFEFFFFEA18
:10005000FEFFFFEAFEFFFFEA94009FE5AA10A0E37F
:100060005520A0E32430A0E3043080E50130A0E374
:10007000003080E50C1080E50C2080E5083090E52C
:10008000013B13E2FCFFFF0A0330A0E3003080E5F0
:100090000C1080E50C2080E558009FE50410A0E3DB
:1000A000041080E50210A0E3001080E548009FE501
:1000B000DBF021E300D0A0E1080040E2D7F021E32B
:1000C00000D0A0E1080040E2D1F021E300D0A0E19F
:1000D000080040E2D2F021E300D0A0E1030C40E2AE
:1000E000D3F021E300D0A0E1030C40E20C009FE537
:1000F00010FF2FE180C01FE000C01FE0B83C0040AF
:1001000004010000000000EB2E0000EB2C008FE249
:10011000000C90E800A08AE000B08BE001704AE299
:100120000B005AE10000001A260000EB0F00BAE8AD
:1001300018E04FE2010013E303F0471013FF2FE133
:100140004825000068250000102052E27800B02801
:100150007800A128FBFFFF8A822EB0E13000B02892
:100160003000A12800409045004081451EFF2FE14E
:100170000030B0E30040B0E30050B0E30060B0E313
:10018000102052E27800A128FCFFFF8A822EB0E105
:100190003000A128003081451EFF2FE101C08FE211
:1001A0001CFF2FE11FB5059886460FBC009C02B0CE
:1001B0007047000001C08FE21CFF2FE130B475468C
:1001C000AE4630BC70470000810800EB0210A0E191
:1001D000F1FFFFEB1CC09FE50FC08CE001001CE3AA
:1001E0000DE08F120FE0A0011CFF2FE101C08FE294
:1001F0001CFF2FE102F01EF9750200007847C0468F
:1002000003002DE9EAFFFFEB0300BDE8900800EBD7
:100210000C009FE50C109FE504209FE508309FE54A
:100220001EFF2FE198360040A0390040983600406C
:1002300001002DE900204DE90000A0E104D04DE2CD
:100240000100BDE8004020E900E0A0E10100BDE8B8
:10025000FF7F4EE90000A0E13CE04EE200004FE1EC
:1002600001002EE94C009FE5000090E501002EE919
:1002700044009FE5001090E500E081E53C009FE52B
:100280000FE0A0E110FF2FE12C009FE5000090E5BA
:1002900000E090E51C009FE50200BEE8001080E54C
:1002A0000100BEE800F06FE1FF7FDEE80000A0E1A2
:1002B0003CE09EE504F05EE29C00004060000040EF
:1002C0008105000000205BE041004118514A515C6B
:1002D000002902D0012950D127E0410041184D4AA0
:1002E0008918897800290CD14B4989684200821805
:1002F000484BD218537801229A409143464A916064
:1003000012E041004118434A8918897801290BD12C
:1003100041498968420082183E4BD2185378012225
:100320009A4011433C4A916028E041004118394A03
:100330008918897800290CD13749896942008218C7
:10034000344BD218537801229A409143324A91613A
:1003500012E0410041182F4A8918897801290BD1F0
:100360002D498969420082182A4BD21853780122FC
:100370009A401143284A916100E0C046C046401CA3
:100380002649098888429FDB70470200002A02D074
:10039000012A0CD105E0204B1B68CB40D807C00FC9
:1003A00005E01D4B1B69CB40D807C00FC046C046B7
:1003B000704710B4002802D0012827D113E0002A8A
:1003C00007D1154BDB6801248C402343124CE360BA
:1003D00008E0012A06D1104B5B6801248C402343BE
:1003E0000D4C636012E0002A07D10B4BDB6901243E
:1003F0008C402343084CE36108E0012A06D1064BF8
:100400005B6901248C402343034C6361C04610BCEC
:100410007047000000000040008002E05A000040E9
:100420007D20C0001649C8600800406801210843CB
:1004300013494860704710B5E120400200F024F8ED
:10044000FFF740FFFFF7ECFF01200E49087010BCDA
:1004500008BC1847FFF7EFFF01F00EFE00F03EFD6D
:10046000C046FEE706484068022108430449486048
:100470000800406802218843014948607047000035
:10048000008000E000C11FE070B505005A48006818
:100490000121090408435849086008000068012147
:1004A00089040843544908602E013100534801F083
:1004B000DDFF04005248007B802108435049087347
:1004C0000C70240A0C71072008720320087348146A
:1004D000C068802188434B49C860080000698021BA
:1004E0000843484908614848484948602720484926
:1004F000486043480079032108434149087170BCB2
:1005000008BC1847010043480078012809D10020A1
:10051000404A10704048007800060016087001201C
:1005200070470020FCE7364A1070704770B5050030
:100530000C003A480078002820D1002D1ED0384900
:100540000C7036490C70002303E0E85C3549C85450
:100550005B1CA342F9DB31490A780978491E2F4E0A
:1005600031702F490978891A2E4A515C09060816FC
:10057000FFF7D9FF012070BC08BC18470020FAE73C
:1005800010B41F4A107A2EE00207120F022A0BD075
:10059000042A1CD0062A02D00C2A20D116E0184AC0
:1005A000127D110609161BE01C4A1278002A0CDD88
:1005B0001A4A13781278521E184C2270184A127870
:1005C000D21A184B9A5C0E4B1A7009E0C0460C4ABE
:1005D0001278114B1A7001220E4B1A7000E0C046BF
:1005E000C046074A107AC207D20F002ACCD0002298
:1005F000044B1A6310BC704700C002E000879303ED
:10060000000001E000F0FFFF3002000000F1FFFFFA
:1006100000F2FFFF5D0000405C0000405F00004012
:100620005E000040BC00004010B5002406E014212C
:100630006143FE4A881800F04FFF641C042CF6D377
:10064000FB4800F049FFFB4800F046FFFA4800F085
:1006500043FFFA4800F040FFF94800F03DFFF4483E
:10066000F8490860F348F849086010BC08BC18470E
:1006700010B5040001F0E0FBF4480068401CF349A9
:100680000860F3480068002808D1F14804600800B9
:10069000006801280ED1FFF7C7FF0BE0ED480068A6
:1006A000002807D1EA480068C06AE16A884201D898
:1006B000E7480460E8480068401CE7490860E749EB
:1006C000E06A0968884202D9E449E06A08601422B5
:1006D000E16A5143D54A8818211D00F00DFF01F051
:1006E000B6FBDC480068002801D0D948006810BC7F
:1006F00008BC1847FFB581B00E000A9F0C9C216B07
:100700000398401E8000081800900098C008C000A0
:100710000090002E11D0002508E0715D20003430DB
:100720004155705D002800D102E06D1C102DF4D3FE
:10073000C04600214320015502E00021342001552C
:10074000042F00D30327E762201D00F0D2FE200013
:10075000183000F0CEFE24610420C01BA06164624A
:1007600000206064002148200155049A684603C8AF
:1007700001F0FAFA20600B98002801D00B98046071
:1007800005B0F0BC08BC1847FFB585B01700B8002D
:1007900001F0BDFB0600002E0BD04C2001F0B7FB92
:1007A0000400002C01D0266304E0300001F004FCBA
:1007B00000E00024002C10D000220EA803C86B46D5
:1007C00013C303923A00089B05A803C8FFF792FFE2
:1007D0002000FFF74DFF012501E00025ED43280033
:1007E00009B0F0BC08BC1847964909680968002997
:1007F00001D1012100E00021002904D00021C943DA
:10080000974A116006E08F490968C968C868944A28
:1008100041681160704710B50400206B01F0CCFBFB
:10082000200001F0C9FB10BC08BC184770B50500DA
:1008300001F002FB002D02D18548006800E028008D
:100840000400201D00F080FEA06A002803D02000D4
:10085000183000F079FE80480068401C7E4908602E
:100860007B480068844209D1211D744800F044FE91
:100870007C480068401C7B49086009E073480068B8
:10088000401E724908602000FFF7C5FFFFF7ACFF6C
:1008900001F0DDFA6F480068002805D06C48006858
:1008A000844201D101F0BEFE70BC08BC1847F8B507
:1008B000002000906C480068002851D16B48006807
:1008C000451C6A480560002D0FD15E4807685E48E8
:1008D00000685C4908605C48076065480068401C27
:1008E00063490860FFF780FFC0465D4800688542A5
:1008F00035D3C046534800680068002801D1012064
:1009000000E00020002804D00020C04354490860C3
:1009100024E04C480068C068C4686668B54202D2EA
:100920004F4806601AE0201D00F00EFEA06A002865
:1009300003D02000183000F007FE4849E06A09683B
:10094000884202D94549E06A08601422E16A5143AD
:10095000364A8818211D00F0CFFDCBE7C04604E0E1
:1009600044480068401C434908600098F8BC08BC33
:10097000184770B50024002601F05EFA3A48006876
:10098000401E3949086008000068002848D12F48F7
:100990000068002844D022E02748C068C4682000CE
:1009A000183000F0D1FD201D00F0CEFD2B49E06A8B
:1009B0000968884202D92949E06A08601422E16A7C
:1009C00051431A4A8818211D00F096FD2049E06A1B
:1009D0000968C96A884202D301202749086016487D
:1009E0000068002801D1012000E000200028D3D0B9
:1009F000002C01D0FFF7F8FE1E480568002D0DD031
:100A0000C046FFF754FF002802D001201A490860B1
:100A10006D1E002DF5D100201649086016480068AB
:100A200001F015FA300070BC08BC18478401004082
:100A3000D4010040E8010040FC01004010020040E9
:100A40002402004064000040680000407000004044
:100A5000600000407C0000408C00004078000040B6
:100A6000900000406C00004098000040740000407E
:100A7000880000408000004084000040F8B5050078
:100A80000E00FE480768FE480068001D00F05CFD8F
:100A9000681C002808D1002E06D0F9480168091DFD
:100AA000F84800F029FD1AE07C19F5480068446018
:100AB000BC4207D2F2480168091DF348006800F003
:100AC00027FD0CE0EE480168091DF048006800F0C1
:100AD0001FFDEF480068844201D2ED480460F8BC75
:100AE00008BC1847EB480068401CEA49086070479A
:100AF000F3B581B0040000200090FFF7F3FFDF485A
:100B00000668216802980D182068B04207D920684D
:100B1000A8420BD9B54209D90120009006E020680F
:100B2000A84201D8B54201D9012000902560009863
:100B3000002803D0A81B0021FFF7A0FFFFF719FF33
:100B40000700002F01D101F06DFDFEBC08BC184765
:100B500070B504000025002C08D0FFF7C3FF00216A
:100B60002000FFF78BFFFFF704FF0500002D01D1E8
:100B700001F058FD70BC08BC184770B5040001F0C6
:100B80005BF9002C02D1BE48006800E0200006009E
:100B9000F56A01F05CF9280070BC08BC184710B475
:100BA00001000023002902D1B54C246800E00C00AC
:100BB0002200D06A10BC7047FEB507000D0000206F
:100BC0000090042D00D3032501F036F9002F02D147
:100BD000AB48006800E038000400E66AAE423FD04F
:100BE000B5420BD9A648006884420DD0A4480068DD
:100BF000C06AA84208D80120009005E0A04800681B
:100C0000844201D101200090E06A0190E562A06970
:100C1000C00FC007002802D10420401BA0616169F9
:100C20001422019850439C4A8018814201D101202E
:100C300000E00020002812D0201D00F085FC97491C
:100C4000E06A0968884202D99449E06A086014227F
:100C5000E16A5143904A8818211D00F04DFCC046BE
:100C600001F0F5F8FEBC08BC18478A480068002867
:100C700003D001208A49086027E0002088490860E5
:100C80008648016800E0491E14204843824A1058F3
:100C9000002801D1012000E000200028F3D1142217
:100CA0004A437D4BD01842685268426002000832C5
:100CB0004368934202D14268526842604268D268F7
:100CC0006F4B1A6075480160C046704770B50500EB
:100CD00001F0B2F8002D02D16948006800E0280058
:100CE0000400201D00F030FCA06A002803D0200082
:100CF000183000F029FC211D624800F0FDFB48205F
:100D0000005D012802D100214820015501F09FF823
:100D100064480068002805D001F08EF8FFF764FDF4
:100D200001F095F856480068844212D15D48006889
:100D3000002802D001F076FC0BE0524800685A49C6
:100D40000968884203D100204D49086001E0FFF79F
:100D50008CFF70BC08BC184710B4010000200A00CA
:100D6000484C5369A34201D1012300E00023002B2A
:100D700011D04E4C936AA34201D1012300E000231D
:100D8000002B08D1936A002B01D1012300E000233E
:100D9000002B00D0012010BC704770B505002C005E
:100DA0003748006884421FD0002C1DD001F044F861
:100DB0002000FFF7D1FF002814D0201D00F0C4FB55
:100DC0003649E06A0968884202D93449E06A086015
:100DD0001422E16A5143304A8818211D00F08CFB2F
:100DE0002748006801F033F870BC08BC1847F8B514
:100DF000050000262C0000272000FFF7ADFF00288B
:100E000023D02448006800281AD11D49E06A0968E7
:100E1000C96A884200D30126201D00F095FB1F49B6
:100E2000E06A0968884202D91C49E06A0860142215
:100E3000E16A5143184A8818211D00F05DFB04E067
:100E400021001831194800F057FB3000F8BC08BCED
:100E5000184710B535E000F0EFFF1548C068C468CA
:100E6000201D00F071FB10480068401E0E4908600C
:100E700010480068401E0F4908601DE074000040E3
:100E80006000004024020040680000406400004010
:100E9000900000409800004084010040780000402D
:100EA000840000407C00004070000040FC010040D5
:100EB000100200406C00004000F0C9FF2000FFF766
:100EC000AAFCFE4800680028C5D110BC08BC184721
:100ED000C046FFF7BEFF01F0A5FBFAE71CB5F848D6
:100EE00000210B00642200910190F6A1F748FFF762
:100EF0004BFC0400012C0CD101F09EFBA01EF44918
:100F000008600120F34908600020F349086000F000
:100F100089FF1CBC08BC184710B501F08DFB0020F0
:100F2000EC49086000F087FF10BC08BC184710B5FA
:100F300000F082FFE848046800F089FF200010BC40
:100F400008BC18470021E44A10687047E34800686D
:100F500070470100002902D1E148006800E0080064
:100F6000020010003430704770B504000025FFF710
:100F7000B9FDDC4800680019DA490860FFF7F9FCA0
:100F80000500280070BC08BC184770B505000C00AF
:100F9000D34801681831280000F0BAFA0121200076
:100FA000FFF76CFD70BC08BC184770B506000C005C
:100FB00015000120C0072043C94909688861C84855
:100FC00001681831300000F097FA01212800FFF77E
:100FD00055FD70BC08BC184770B50600F068C468C1
:100FE0002000183000F0B0FABF480068002813D184
:100FF000201D00F0A9FABD49E06A0968884202D9BB
:10100000BA49E06A08601422E16A5143B84A881874
:10101000211D00F071FA04E021001831B54800F0FC
:101020006BFAAF49E06A0968C96A884204D90125A8
:101030000120B149086000E00025280070BC08BC10
:10104000184770B505000E000120C0073043286026
:10105000EC68280000F078FA201D00F075FAA3492A
:10106000E06A0968884202D9A049E06A086014224F
:10107000E16A51439E4A8818211D00F03DFA9849C3
:10108000E06A0968C96A884202D901209A49086061
:1010900070BC08BC184710B5040000F0CDFE97489E
:1010A000006820608C480068606000F0D0FE10BCD2
:1010B00008BC18479149096801608749096841607F
:1010C000704770B506000C0000F0B6FE824802685A
:1010D0007068131A2068401C002801D1002517E011
:1010E000864930680968884204D07068904201D807
:1010F00001250DE02068984207D92068C01A2060B9
:101100003000FFF7D7FF002502E000202060012516
:1011100000F09DFE280070BC08BC184701207649ED
:10112000086070476E49096888696D490968C96A2D
:101130000422511A6A4A12689161704770B506001C
:101140000D0000F079FE66480068406C00280BD165
:1011500001216348006840300172002D04D028004E
:10116000FFF78CFC01F05EFA00F071FE00F064FE07
:101170005B480068446C002C0AD0002E04D000208C
:1011800057490968486403E0601E55490968486486
:101190000021534800684030017200F058FE2000E2
:1011A00070BC08BC1847FFB581B0070014001D00D3
:1011B00000F042FE4A4800684030007A022812D00F
:1011C0004749096808004430496CB943016001216E
:1011D0004348006840300172002D04D02800FFF71A
:1011E0004DFC01F01FFA00F032FE00F025FE002C4D
:1011F00003D03B480068406C2060394800684030AC
:10120000007A022801D0002608E035490968080064
:1012100044304A6C02998A4302600126002130481A
:1012200000684030017200F012FE300005B0F0BCE2
:1012300008BC1847FFB583B00D0016001F00012041
:101240000290039C00F0F8FD002F01D0606C386024
:101250004820005D0190022148200155330001F033
:1012600001FA051604080C0E1700606C2843606430
:101270000FE0606C401C60640BE0656409E001985D
:10128000022801D0656401E00020029001E000E046
:10129000C046C0460198012837D1201D00F054F9FE
:1012A0001249E06A0968884202D91049E06A086078
:1012B0001422E16A51430E4A881821E06C00004074
:1012C0009400004049444C4500000000D10E00004D
:1012D000900000407C00004074000040700000401E
:1012E000600000408000004098000040780000400E
:1012F00084010040FC010040840000408800004060
:10130000211D00F0F9F86E48006800F0A0FD029879
:1013100007B0F0BC08BC1847FFB583B00D0016003D
:101320001F0001200190039C00200090002F01D09D
:10133000606C38604820005D029002214820015511
:10134000330001F08FF9051604080C0E1700606CCD
:10135000284360640FE0606C401C60640BE06564CF
:1013600009E00298022801D0656401E000200190A4
:1013700001E000E0C046C046029801282BD1514848
:101380000068002813D1201D00F0DEF84E49E06A05
:101390000968884202D94C49E06A08601422E16A6F
:1013A00051434A4A8818211D00F0A6F804E02100A4
:1013B0001831474800F0A0F84149E06A0968C96A55
:1013C000884208D90C98002802D001210C980160AD
:1013D000012040490860019807B0F0BC08BC1847DC
:1013E000F8B505000E002C00002000904820075D95
:1013F00002210155606C401C6064012F29D13148E5
:101400000068002813D1201D00F09EF82E49E06AE4
:101410000968884202D92C49E06A08601422E16A0E
:1014200051432A4A8818211D00F066F804E0210083
:101430001831274800F060F82149E06A0968C96A54
:10144000884206D9002E01D00120306001202149B8
:101450000860F8BC08BC184770B50500002D02D123
:101460001748006800E02800060000F0E5FC48206E
:10147000805D022804D1002148208155012400E02C
:10148000002400F0E4FC200070BC08BC1847F8B54C
:1014900004000D00002C02D10948006800E0200083
:1014A000060000F0C9FC06480068476C706CA84351
:1014B000706400F0CCFC3800F8BC08BC1847000091
:1014C0006000004098000040780000408401004027
:1014D000FC0100408400004001000831416000210F
:1014E000C943816001000831C160016100210160D0
:1014F000704700210161704742684A6093688B60C1
:10150000936859609160086103685B1C03607047D1
:1015100010B402000B685C1C002C01D1106907E0BC
:101520001000083000E04068446824689C42FAD902
:1015300044684C604C68A160886041600A6114682E
:10154000641C146010BC704701000A694B6888680D
:101550009860081D09C858605068884201D18868A1
:101560005060002008611068401E106010687047CD
:1015700070B505000E002C0000F05EFC216CE06BE5
:10158000484321684018A0600020A0632068606084
:10159000E06B401E216C484321684118E160002146
:1015A000C9434420015545200155002E0CD1206926
:1015B000002801D1012000E0002000280CD12000EB
:1015C0001030FFF709FD07E020001030FFF784FF1F
:1015D00020002430FFF780FF00F039FC012070BCB0
:1015E00008BC1847F8B506000D001700069C002D32
:1015F00001D1246000E02760E6632564012120001A
:10160000FFF7B6FFF8BC08BC1847FEB505000E0092
:10161000170028007043029002990800483000F03B
:1016200076FC0400002C0BD00194019C2000483073
:1016300001903B00009431002800019AFFF7D2FF8F
:101640002000FEBC08BC184770B5040000F0F4FB95
:101650004520055714E0606A002801D1012000E010
:101660000020002808D120002430FFF7B5FC002816
:1016700003D0FFF753FD00E004E0681E00060516E6
:10168000002DE8DCC0460021C9434520015500F08B
:10169000DEFB00F0D1FB4420055714E02069002850
:1016A00001D1012000E0002000280BD120001030E3
:1016B000FFF792FC002801D0FFF730FD681E0006FE
:1016C000051600E001E0002DE8DCC0460021C9431A
:1016D0004420015500F0BBFB70BC08BC184770B536
:1016E000050000F0A9FBA86BE96B884201D1012439
:1016F00000E0002400F0ABFB200070BC08BC1847E1
:10170000F8B504000F00150000200090A66B206CB7
:10171000002827D0002D0FD13900226C606800F01E
:10172000F7FC216C606840186060A16860688842BE
:1017300018D32068606015E03900226CE06800F082
:10174000E7FC216CE068411AE1602168E0688842AA
:1017500003D2216CA068411AE160022D02D1002E53
:1017600000D0761E701CA0630098F8BC08BC184717
:10177000FFB583B006001D0000273400C04600F00E
:101780005BFBA06BE16B884201D3022D1AD12A00CA
:1017900020000499FFF7B4FF0290606A002801D18D
:1017A000012000E00020002804D120002430FFF7B1
:1017B00013FC00E0C04600F04AFB012007B0F0BC7B
:1017C00008BC18470598002803D100F040FB002012
:1017D000F4E7002F03D16846FFF76CFC012700F007
:1017E00036FBFFF77FF900F027FB44210857401C28
:1017F000002802D100214420015545210857401CF2
:10180000002802D100214520015500F020FB05A948
:101810006846FFF756FC002819D12000FFF75FFF4C
:1018200000280ED0200010300599FFF7AEFB2000F5
:10183000FFF70AFFFFF79DF80028A0D100F0F2FEA5
:101840009DE72000FFF700FFFFF793F897E72000E0
:10185000FFF7FAFEFFF78DF80020AFE7FFB585B080
:10186000050016001F002C0000200390A06BE16B08
:10187000884201D3022F29D1452001570291A06B44
:1018800001903A0020000699FFF73AFF0298401CA9
:10189000002812D1606A002801D1012000E0002058
:1018A000002809D120002430FFF796FB002803D040
:1018B000002E01D00120306005E00298401C010696
:1018C0000916452001550120049001E000200490F4
:1018D000049809B0F0BC08BC1847FEB505000E001E
:1018E0002C0000200290A06B0190E16B01988142D6
:1018F00024D94520015700910198401CA06300980D
:10190000401C002812D1606A002801D1012000E0AB
:101910000020002810D120002430FFF75DFB0028B4
:101920000AD0002E08D00120306005E00098401C4D
:101930000106091645200155012700E0002738005F
:10194000FEBC08BC184770B5050000F075FAA86B1E
:10195000002801D1012400E0002400F078FA2000E2
:1019600070BC08BC184770B504000D00206C00283E
:101970000ED0216CE0684118E160A168E0688842FF
:1019800001D32168E1602800226CE16800F0C0FB0F
:1019900070BC08BC1847F7B582B0050000272C00C2
:1019A000C04600F049FAA66B002E18D0200003991B
:1019B000FFF7D9FF701EA0632069002801D1012024
:1019C00000E00020002803D120001030FFF704FBC6
:1019D00000F03DFA012005B0F0BC08BC184704989F
:1019E000002803D100F033FA0020F4E7002F03D1E0
:1019F0006846FFF75FFB012700F029FAFFF772F84E
:101A000000F01AFA44210857401C002802D1002196
:101A10004420015545210857401C002802D10021CF
:101A20004520015500F013FA04A96846FFF749FB69
:101A3000002819D12000FFF786FF00280ED02000D3
:101A400024300499FFF7A1FA2000FFF7FDFDFEF70F
:101A500090FF0028A5D100F0E5FDA2E72000FFF7E8
:101A6000F3FDFEF786FF9CE72000FFF7EDFDFEF794
:101A700080FF2000FFF767FF002892D00020AAE730
:101A8000F3B583B0050000272C00C04600F0D4F960
:101A9000A66B002E14D0701EA0632069002801D10F
:101AA000012000E00020002803D120001030FFF7C3
:101AB00093FA00F0CCF9012005B0F0BC08BC18473F
:101AC0000498002803D100F0C2F90020F4E7002FA9
:101AD00003D101A8FFF7EEFA012700F0B8F9FFF7EC
:101AE00001F800F0A9F944210857401C002802D150
:101AF00000214420015545210857401C002802D1EF
:101B000000214520015500F0A2F904A901A8FFF722
:101B1000D8FA002819D12000FFF715FF00280ED0B1
:101B2000200024300499FFF730FA2000FFF78CFDE5
:101B3000FEF71FFF0028A9D100F074FDA6E72000E2
:101B4000FFF782FDFEF715FFA0E72000FFF77CFD01
:101B5000FEF70FFF2000FFF7F6FE002896D00020CA
:101B6000AAE7F7B584B0050000272C00C04600F0B6
:101B700063F9A06B01900198002818D0E668200056
:101B80000599FFF7F0FEE660606A002801D10120A8
:101B900000E00020002803D120002430FFF71CFAC9
:101BA00000F055F9012007B0F0BC08BC18470698B2
:101BB000002803D100F04BF90020F4E7002F03D1F7
:101BC00002A8FFF777FA012700F041F9FEF78AFF34
:101BD00000F032F944210857401C002802D10021AE
:101BE0004420015545210857401C002802D10021FE
:101BF0004520015500F02BF906A902A8FFF761FA6C
:101C0000002819D12000FFF79EFE00280ED02000EA
:101C100024300699FFF7B9F92000FFF715FDFEF70C
:101C2000A8FE0028A3D100F0FDFCA0E72000FFF7EC
:101C30000BFDFEF79EFE9AE72000FFF705FDFEF77D
:101C400098FE2000FFF77FFE002890D00020AAE732
:101C5000F7B584B0050016002C0000200390A06B9F
:101C600002900298002828D04420015701912000BA
:101C70000599FFF778FE0298401EA0630198401C6A
:101C8000002812D12069002801D1012000E00020A5
:101C9000002810D120001030FFF79EF900280AD04C
:101CA000002E08D00120306005E00198401C01069C
:101CB000091644200155012700E00027380007B02D
:101CC000F0BC08BC1847F3B581B005002C0000201B
:101CD0000090A06B002807D0E76820000299FFF76A
:101CE00042FEE760012600E000263000FEBC08BC92
:101CF000184770B5040000F09FF8A56B00F0A7F836
:101D0000280070BC08BC184770B50400250000F01E
:101D100093F8A96BE86B461A00F099F8300070BC94
:101D200008BC184701000A00906B704770B50400AA
:101D30002500280000F040F970BC08BC18470100DD
:101D40000A00936B002B01D1012000E000207047B6
:101D500010B401000A00936BD46BA34201D101209F
:101D600000E0002010BC704730B40300001F0C1DC1
:101D70000460001F3F4C0460001F0360001F3E4CC6
:101D80000460001F3D4C0460001F3D4C0460001FB8
:101D90003C4C0460001F3C4C0460001F3B4C046042
:101DA000001F3B4C0460001F3A4C0460001F3A4C7B
:101DB0000460001F394C0460001F394C0460001F90
:101DC00064100460001F0260001F1F240460CC0721
:101DD000E40F002C03D0202504682C430460001F6E
:101DE0000024046030BC704700212E4AD1602E4888
:101DF00011008861032151615114C9681022914377
:101E00002A4AD1601100096910221143274A116141
:101E10002749284A11602421274A11600121214ABB
:101E20005160704710B5FFF7DFFF00F033FB002073
:101E300010BC08BC1847704710B500F0FDFB1F48E8
:101E40000068401C1D49086010BC08BC184710B54C
:101E50001A48006800280AD018480068401E174930
:101E6000086008000068002801D100F0F1FB10BCF8
:101E700008BC1847AAAAAAAA12121212111111110B
:101E800010101010090909090808080807070707B2
:101E900006060606050505050404040403030303FA
:101EA00002020202004000E060EA000000F0FFFFD2
:101EB000C01E000000F1FFFF00F2FFFF9C00004089
:101EC0000F502DE9D80100EB0100A0E310109FE5B1
:101ED000000081E50000A0E3D00F00E50F50BDE851
:101EE00004F05EE2004000E0454AD008C000454AE8
:101EF00010600022434B5A60434A444B5A60002210
:101F00001A600100404A4A601A000A607047F8B53A
:101F1000040000200090FEF7E5FD3D480068002821
:101F200004D1FFF7E1FF012039490860002C09D0F6
:101F300008346007400F002804D06007400F0821D4
:101F4000081A0419002C31D02F4884422ED22D4F6C
:101F50003800056801E02F002D686868A04202D2B1
:101F600028680028F7D1294885421FD038680830F2
:101F70000090286838606868001B102810D92E1956
:101F80006868001B70606C6071681E4800E0006843
:101F9000026852688A42FAD3026832600660C0461C
:101FA0001C4968680968081A1A490860FEF7E1FCCC
:101FB0000098F8BC08BC184770B506003500002E24
:101FC00016D0083D2C00FEF78DFD61680D4800E03D
:101FD0000068026852688A42FAD30268226004608C
:101FE0000C496068096840180A490860FEF7C1FC9E
:101FF00070BC08BC1847074800687047704700006D
:1020000040020040A0000040F8330000A80000405B
:10201000B4000040B000004010210020FEF7B5F9E8
:102020000500C04610210020FEF7AFF90400012C86
:1020300008D1002D06D100231A0019002B48006892
:10204000FFF796FB25003220FEF782FDEAE7002429
:10205000C0460021C94325480068FFF711FD01284B
:10206000F7D1012C00D000E0002004002200112153
:102070000020FEF79EF9ECE71FB5002211211000A9
:10208000FEF797F903A80121002364220091019033
:1020900017A11A48FEF778FB0400012C0FD102A803
:1020A0000121002364220091019015A11748FEF739
:1020B0006BFB0400012C02D00398FEF7B7FB032250
:1020C00000210120FFF7A1FA084908600800006814
:1020D000002806D10398FEF7A9FB0298FEF7A6FB9D
:1020E0000024200004B010BC08BC1847B800004011
:1020F0004C454420546F67676C6500004F2000001A
:10210000427574746F6E205461736B001920000067
:102110007847C046030052E32A00009A03C010E249
:102120000800000A0130D1E402005CE30C2082E0E8
:1021300001C0D1940130C0E40130D13401C0C09459
:10214000042042E20130C034033011E28700000A6B
:10215000042052E21B00003A03C031E7020053E3BF
:102160000800000A0F00008A2C34A0E104C0B1E589
:10217000042052E20C3C83E1043080E4F9FFFF2AA2
:10218000011081E20F0000EA2C38A0E104C0B1E5A3
:10219000042052E20C3883E1043080E4F9FFFF2A86
:1021A000021081E2070000EA2C3CA0E104C0B1E586
:1021B000042052E20C3483E1043080E4F9FFFF2A6A
:1021C000031081E20000A0E1822FB0E10130D124B0
:1021D00001C0D1240120D1440130C02401C0C02459
:1021E0000120C0441EFF2FE1013090E12100004A90
:1021F0000020B0E3A03071E01A00003A203271E014
:102200000F00003A203471E00100003A00C0A0E362
:10221000200000EAA03371E0810340200220B2E0F8
:10222000203371E0010340200220B2E0A03271E0CF
:10223000810240200220B2E0203271E00102402001
:102240000220B2E0A03171E0810140200220B2E022
:10225000203171E0010140200220B2E0A03071E0A5
:10226000810040200220B2E0011050E00010A031B7
:102270000200A2E01EFF2FE1022111E200106142E4
:1022800040C032E000006022203271E01D00003AC0
:10229000203471E00F00003A0113A0E1203471E016
:1022A0003F2382E30B00003A0113A0E1203471E0E8
:1022B0003F2682E30700003A0113A0E1203471E0D9
:1022C0003F2982E30113A0213F2C8223003071E2D9
:1022D0001D00002A2113A021A03371E081034020BA
:1022E0000220B2E0203371E0010340200220B2E07E
:1022F000A03271E0810240200220B2E0203271E081
:10230000010240200220B2E0A03171E081014020B2
:102310000220B2E0203171E0010140200220B2E051
:10232000EBFFFF2AA03071E0810040200220B2E0E4
:10233000011050E00010A0310200A2E0CCCFB0E1CB
:1023400000006042001061221EFF2FE1CCCFB0E1FF
:102350000000604201402DE90000B0E30000A0E170
:102360000240BDE81EFF2FE1704770477047000034
:1023700010402DE9202052E20500003A1850B1E843
:10238000202052E21850A0E81850B1E81850A0E8F8
:10239000F9FFFF2A02CEB0E11850B1281850A0284A
:1023A0001800B1481800A0481040BDE802CFB0E1C5
:1023B00004309124043080241EFF2F01822FB0E1CD
:1023C000B230D1200120D144B230C0200120C0441D
:1023D0001EFF2FE10E50A0E11A0000EB05E0A0E186
:1023E0000050B0E10D10A0E10A30A0E10700C0E309
:1023F00000D0A0E160D08DE220402DE983F7FFEB13
:102400002040BDE80060A0E30070A0E30080A0E3EE
:1024100000B0A0E30710C1E305C0A0E1C009ACE82B
:10242000C009ACE8C009ACE8C009ACE801D0A0E143
:102430001EFF2FE110B50400C046C0462000FDF786
:10244000DDFE10BC08BC184700009FE51EFF2FE111
:102450003836004001C08FE21CFF2FE101491820EF
:10246000ABDFFEE7260002001EFF2FE17847C046E3
:102470000020B0E3203171E077FFFF3AA03271E035
:102480006CFFFF3A203471E061FFFF3A00C0A0E327
:1024900080FFFFEA7847C0466C019FE5000090E5A9
:1024A00000E090E564019FE50200BEE8001080E5D1
:1024B0000100BEE800F06FE1FF7FDEE80000A0E170
:1024C0003CE09EE504F05EE2000000EF1EFF2FE11D
:1024D00004E08EE201002DE900204DE90000A0E1BA
:1024E00004D04DE20100BDE8004020E900E0A0E199
:1024F0000100BDE8FF7F4EE90000A0E13CE04EE2B4
:1025000000004FE101002EE900019FE5000090E589
:1025100001002EE9F0009FE5001090E500E081E564
:10252000EC009FE50FE0A0E110FF2FE1D8009FE550
:10253000000090E500E090E5D0009FE50200BEE8D5
:10254000001080E50100BEE800F06FE1FF7FDEE8EB
:102550000000A0E13CE09EE504F05EE201002DE910
:1025600000204DE90000A0E104D04DE20100BDE8EB
:10257000004020E900E0A0E10100BDE8FF7F4EE956
:102580000000A0E13CE04EE200004FE101002EE936
:1025900078009FE5000090E501002EE968009FE5C6
:1025A000001090E500E081E568009FE50FE0A0E104
:1025B00010FF2FE1000050E30200000A50009FE5E9
:1025C0000FE0A0E110FF2FE10100A0E348109FE51C
:1025D000000081E544009FE5000080E528009FE5BC
:1025E000000090E500E090E520009FE50200BEE8D5
:1025F000001080E50100BEE800F06FE1FF7FDEE83B
:102600000000A0E13CE09EE504F05EE260000040D6
:102610009C0000406B0C0000AF080000004000E090
:1026200030F0FFFF7847C046A6FFFFEA00C09FE5F5
:102630001CFF2FE1AF0800007847C04600000FE103
:10264000801080E301F021E1800000E21EFF2FE115
:102650007847C04600000FE18000C0E300F021E1B0
:102660001EFF2FE17847C04601C05EE50C0053E134
:102670000100003A0C30DEE7000000EA0330DEE73C
:1026800083C08EE01CFF2FE1A82600000000004060
:10269000BC0000004801000064270000BC000040AE
:1026A000FC3B00007001000000100000110100124E
:1026B00001001301001401001501001601001701AB
:1026C000001801001901001A01001B01001D010082
:1026D0001E01001F0101100101110101120101136E
:1026E0000101140101150101160101170101180171
:1026F000011901011A01011B01011D01011E010146
:102700001F011E000000000000000000000000008B
:1027100000000000000000000000000000000000B9
:1027200000000000000000000000000000000000A9
:102730000000000000000000000000000000000099
:10274000000000000F270000000000000000000053
:102750000000000000000000F8330000000000004E
:042760000000000075
:0400000500000104F2
:00000001FF
